{
    "_format": "hh-sol-artifact-1",
    "contractName": "Domains",
    "sourceName": "contracts/Domains.sol",
    "abi": [
        {
            "inputs": [
                {
                    "internalType": "string",
                    "name": "_tld",
                    "type": "string"
                }
            ],
            "stateMutability": "payable",
            "type": "constructor"
        },
        {
            "inputs": [],
            "name": "AlreadyRegistered",
            "type": "error"
        },
        {
            "inputs": [
                {
                    "internalType": "string",
                    "name": "name",
                    "type": "string"
                }
            ],
            "name": "InvalidName",
            "type": "error"
        },
        {
            "inputs": [],
            "name": "Unauthorized",
            "type": "error"
        },
        {
            "anonymous": false,
            "inputs": [
                {
                    "indexed": true,
                    "internalType": "address",
                    "name": "owner",
                    "type": "address"
                },
                {
                    "indexed": true,
                    "internalType": "address",
                    "name": "approved",
                    "type": "address"
                },
                {
                    "indexed": true,
                    "internalType": "uint256",
                    "name": "tokenId",
                    "type": "uint256"
                }
            ],
            "name": "Approval",
            "type": "event"
        },
        {
            "anonymous": false,
            "inputs": [
                {
                    "indexed": true,
                    "internalType": "address",
                    "name": "owner",
                    "type": "address"
                },
                {
                    "indexed": true,
                    "internalType": "address",
                    "name": "operator",
                    "type": "address"
                },
                {
                    "indexed": false,
                    "internalType": "bool",
                    "name": "approved",
                    "type": "bool"
                }
            ],
            "name": "ApprovalForAll",
            "type": "event"
        },
        {
            "anonymous": false,
            "inputs": [
                {
                    "indexed": true,
                    "internalType": "address",
                    "name": "from",
                    "type": "address"
                },
                {
                    "indexed": true,
                    "internalType": "address",
                    "name": "to",
                    "type": "address"
                },
                {
                    "indexed": true,
                    "internalType": "uint256",
                    "name": "tokenId",
                    "type": "uint256"
                }
            ],
            "name": "Transfer",
            "type": "event"
        },
        {
            "inputs": [
                {
                    "internalType": "address",
                    "name": "to",
                    "type": "address"
                },
                {
                    "internalType": "uint256",
                    "name": "tokenId",
                    "type": "uint256"
                }
            ],
            "name": "approve",
            "outputs": [],
            "stateMutability": "nonpayable",
            "type": "function"
        },
        {
            "inputs": [
                {
                    "internalType": "address",
                    "name": "owner",
                    "type": "address"
                }
            ],
            "name": "balanceOf",
            "outputs": [
                {
                    "internalType": "uint256",
                    "name": "",
                    "type": "uint256"
                }
            ],
            "stateMutability": "view",
            "type": "function"
        },
        {
            "inputs": [
                {
                    "internalType": "string",
                    "name": "",
                    "type": "string"
                }
            ],
            "name": "domains",
            "outputs": [
                {
                    "internalType": "address",
                    "name": "",
                    "type": "address"
                }
            ],
            "stateMutability": "view",
            "type": "function"
        },
        {
            "inputs": [
                {
                    "internalType": "string",
                    "name": "name",
                    "type": "string"
                }
            ],
            "name": "getAddress",
            "outputs": [
                {
                    "internalType": "address",
                    "name": "",
                    "type": "address"
                }
            ],
            "stateMutability": "view",
            "type": "function"
        },
        {
            "inputs": [],
            "name": "getAllNames",
            "outputs": [
                {
                    "internalType": "string[]",
                    "name": "",
                    "type": "string[]"
                }
            ],
            "stateMutability": "view",
            "type": "function"
        },
        {
            "inputs": [
                {
                    "internalType": "uint256",
                    "name": "tokenId",
                    "type": "uint256"
                }
            ],
            "name": "getApproved",
            "outputs": [
                {
                    "internalType": "address",
                    "name": "",
                    "type": "address"
                }
            ],
            "stateMutability": "view",
            "type": "function"
        },
        {
            "inputs": [
                {
                    "internalType": "string",
                    "name": "name",
                    "type": "string"
                }
            ],
            "name": "getRecord",
            "outputs": [
                {
                    "internalType": "string",
                    "name": "",
                    "type": "string"
                }
            ],
            "stateMutability": "view",
            "type": "function"
        },
        {
            "inputs": [
                {
                    "internalType": "address",
                    "name": "owner",
                    "type": "address"
                },
                {
                    "internalType": "address",
                    "name": "operator",
                    "type": "address"
                }
            ],
            "name": "isApprovedForAll",
            "outputs": [
                {
                    "internalType": "bool",
                    "name": "",
                    "type": "bool"
                }
            ],
            "stateMutability": "view",
            "type": "function"
        },
        {
            "inputs": [],
            "name": "isOwner",
            "outputs": [
                {
                    "internalType": "bool",
                    "name": "",
                    "type": "bool"
                }
            ],
            "stateMutability": "view",
            "type": "function"
        },
        {
            "inputs": [
                {
                    "internalType": "string",
                    "name": "name",
                    "type": "string"
                }
            ],
            "name": "lengthPrice",
            "outputs": [
                {
                    "internalType": "uint256",
                    "name": "",
                    "type": "uint256"
                }
            ],
            "stateMutability": "pure",
            "type": "function"
        },
        {
            "inputs": [],
            "name": "name",
            "outputs": [
                {
                    "internalType": "string",
                    "name": "",
                    "type": "string"
                }
            ],
            "stateMutability": "view",
            "type": "function"
        },
        {
            "inputs": [
                {
                    "internalType": "uint256",
                    "name": "",
                    "type": "uint256"
                }
            ],
            "name": "names",
            "outputs": [
                {
                    "internalType": "string",
                    "name": "",
                    "type": "string"
                }
            ],
            "stateMutability": "view",
            "type": "function"
        },
        {
            "inputs": [],
            "name": "owner",
            "outputs": [
                {
                    "internalType": "address payable",
                    "name": "",
                    "type": "address"
                }
            ],
            "stateMutability": "view",
            "type": "function"
        },
        {
            "inputs": [
                {
                    "internalType": "uint256",
                    "name": "tokenId",
                    "type": "uint256"
                }
            ],
            "name": "ownerOf",
            "outputs": [
                {
                    "internalType": "address",
                    "name": "",
                    "type": "address"
                }
            ],
            "stateMutability": "view",
            "type": "function"
        },
        {
            "inputs": [
                {
                    "internalType": "string",
                    "name": "",
                    "type": "string"
                }
            ],
            "name": "records",
            "outputs": [
                {
                    "internalType": "string",
                    "name": "",
                    "type": "string"
                }
            ],
            "stateMutability": "view",
            "type": "function"
        },
        {
            "inputs": [
                {
                    "internalType": "string",
                    "name": "name",
                    "type": "string"
                }
            ],
            "name": "register",
            "outputs": [],
            "stateMutability": "payable",
            "type": "function"
        },
        {
            "inputs": [
                {
                    "internalType": "address",
                    "name": "from",
                    "type": "address"
                },
                {
                    "internalType": "address",
                    "name": "to",
                    "type": "address"
                },
                {
                    "internalType": "uint256",
                    "name": "tokenId",
                    "type": "uint256"
                }
            ],
            "name": "safeTransferFrom",
            "outputs": [],
            "stateMutability": "nonpayable",
            "type": "function"
        },
        {
            "inputs": [
                {
                    "internalType": "address",
                    "name": "from",
                    "type": "address"
                },
                {
                    "internalType": "address",
                    "name": "to",
                    "type": "address"
                },
                {
                    "internalType": "uint256",
                    "name": "tokenId",
                    "type": "uint256"
                },
                {
                    "internalType": "bytes",
                    "name": "_data",
                    "type": "bytes"
                }
            ],
            "name": "safeTransferFrom",
            "outputs": [],
            "stateMutability": "nonpayable",
            "type": "function"
        },
        {
            "inputs": [
                {
                    "internalType": "address",
                    "name": "operator",
                    "type": "address"
                },
                {
                    "internalType": "bool",
                    "name": "approved",
                    "type": "bool"
                }
            ],
            "name": "setApprovalForAll",
            "outputs": [],
            "stateMutability": "nonpayable",
            "type": "function"
        },
        {
            "inputs": [
                {
                    "internalType": "string",
                    "name": "name",
                    "type": "string"
                },
                {
                    "internalType": "string",
                    "name": "record",
                    "type": "string"
                }
            ],
            "name": "setRecord",
            "outputs": [],
            "stateMutability": "nonpayable",
            "type": "function"
        },
        {
            "inputs": [
                {
                    "internalType": "bytes4",
                    "name": "interfaceId",
                    "type": "bytes4"
                }
            ],
            "name": "supportsInterface",
            "outputs": [
                {
                    "internalType": "bool",
                    "name": "",
                    "type": "bool"
                }
            ],
            "stateMutability": "view",
            "type": "function"
        },
        {
            "inputs": [],
            "name": "symbol",
            "outputs": [
                {
                    "internalType": "string",
                    "name": "",
                    "type": "string"
                }
            ],
            "stateMutability": "view",
            "type": "function"
        },
        {
            "inputs": [],
            "name": "tld",
            "outputs": [
                {
                    "internalType": "string",
                    "name": "",
                    "type": "string"
                }
            ],
            "stateMutability": "view",
            "type": "function"
        },
        {
            "inputs": [
                {
                    "internalType": "uint256",
                    "name": "tokenId",
                    "type": "uint256"
                }
            ],
            "name": "tokenURI",
            "outputs": [
                {
                    "internalType": "string",
                    "name": "",
                    "type": "string"
                }
            ],
            "stateMutability": "view",
            "type": "function"
        },
        {
            "inputs": [
                {
                    "internalType": "address",
                    "name": "from",
                    "type": "address"
                },
                {
                    "internalType": "address",
                    "name": "to",
                    "type": "address"
                },
                {
                    "internalType": "uint256",
                    "name": "tokenId",
                    "type": "uint256"
                }
            ],
            "name": "transferFrom",
            "outputs": [],
            "stateMutability": "nonpayable",
            "type": "function"
        },
        {
            "inputs": [
                {
                    "internalType": "string",
                    "name": "name",
                    "type": "string"
                }
            ],
            "name": "valid",
            "outputs": [
                {
                    "internalType": "bool",
                    "name": "",
                    "type": "bool"
                }
            ],
            "stateMutability": "pure",
            "type": "function"
        },
        {
            "inputs": [],
            "name": "withdraw",
            "outputs": [],
            "stateMutability": "nonpayable",
            "type": "function"
        }
    ],
    "bytecode": "0x6080604052604051806107a0016040528061076e81526020016200564661076e9139600a908051906020019062000038929190620002c8565b506040518060400160405280600d81526020017f3c2f746578743e3c2f7376673e00000000000000000000000000000000000000815250600b908051906020019062000086929190620002c8565b5060405162005db438038062005db48339818101604052810190620000ac919062000515565b6040518060400160405280601581526020017f47616e6747616e67204e616d65205365727669636500000000000000000000008152506040518060400160405280600381526020017f474e530000000000000000000000000000000000000000000000000000000000815250816000908051906020019062000130929190620002c8565b50806001908051906020019062000149929190620002c8565b50505033600760006101000a81548173ffffffffffffffffffffffffffffffffffffffff021916908373ffffffffffffffffffffffffffffffffffffffff1602179055508060099080519060200190620001a5929190620002c8565b50620001f26040518060400160405280601881526020017f2573206e616d652073657276696365206465706c6f796564000000000000000081525082620001f960201b62001d721760201c565b5062000663565b6200029b828260405160240162000212929190620005c3565b6040516020818303038152906040527f4b5c4277000000000000000000000000000000000000000000000000000000007bffffffffffffffffffffffffffffffffffffffffffffffffffffffff19166020820180517bffffffffffffffffffffffffffffffffffffffffffffffffffffffff83818316178352505050506200029f60201b60201c565b5050565b60008151905060006a636f6e736f6c652e6c6f679050602083016000808483855afa5050505050565b828054620002d6906200062d565b90600052602060002090601f016020900481019282620002fa576000855562000346565b82601f106200031557805160ff191683800117855562000346565b8280016001018555821562000346579182015b828111156200034557825182559160200191906001019062000328565b5b50905062000355919062000359565b5090565b5b80821115620003745760008160009055506001016200035a565b5090565b6000604051905090565b600080fd5b600080fd5b600080fd5b600080fd5b6000601f19601f8301169050919050565b7f4e487b7100000000000000000000000000000000000000000000000000000000600052604160045260246000fd5b620003e18262000396565b810181811067ffffffffffffffff82111715620004035762000402620003a7565b5b80604052505050565b60006200041862000378565b9050620004268282620003d6565b919050565b600067ffffffffffffffff821115620004495762000448620003a7565b5b620004548262000396565b9050602081019050919050565b60005b838110156200048157808201518184015260208101905062000464565b8381111562000491576000848401525b50505050565b6000620004ae620004a8846200042b565b6200040c565b905082815260208101848484011115620004cd57620004cc62000391565b5b620004da84828562000461565b509392505050565b600082601f830112620004fa57620004f96200038c565b5b81516200050c84826020860162000497565b91505092915050565b6000602082840312156200052e576200052d62000382565b5b600082015167ffffffffffffffff8111156200054f576200054e62000387565b5b6200055d84828501620004e2565b91505092915050565b600081519050919050565b600082825260208201905092915050565b60006200058f8262000566565b6200059b818562000571565b9350620005ad81856020860162000461565b620005b88162000396565b840191505092915050565b60006040820190508181036000830152620005df818562000582565b90508181036020830152620005f5818462000582565b90509392505050565b7f4e487b7100000000000000000000000000000000000000000000000000000000600052602260045260246000fd5b600060028204905060018216806200064657607f821691505b602082108114156200065d576200065c620005fe565b5b50919050565b614fd380620006736000396000f3fe60806040526004361061019c5760003560e01c806370a08231116100ec578063bf40fac11161008a578063e28f338411610064578063e28f338414610624578063e985e9c514610661578063f2c298be1461069e578063fb825e5f146106ba5761019c565b8063bf40fac114610581578063c1880a98146105be578063c87b56dd146105e75761019c565b806395d89b41116100c657806395d89b41146104c75780639791c097146104f2578063a22cb4651461052f578063b88d4fde146105585761019c565b806370a08231146104345780638da5cb5b146104715780638f32d59b1461049c5761019c565b8063264492351161015957806342842e0e1161013357806342842e0e146103545780634622ab031461037d578063541e771d146103ba5780636352211e146103f75761019c565b806326449235146102d55780632d551432146103125780633ccfd60b1461033d5761019c565b806301ffc9a7146101a157806306fdde03146101de578063081812fc14610209578063095ea7b31461024657806311dd88451461026f57806323b872dd146102ac575b600080fd5b3480156101ad57600080fd5b506101c860048036038101906101c391906132f3565b6106e5565b6040516101d5919061333b565b60405180910390f35b3480156101ea57600080fd5b506101f36107c7565b60405161020091906133ef565b60405180910390f35b34801561021557600080fd5b50610230600480360381019061022b9190613447565b610859565b60405161023d91906134b5565b60405180910390f35b34801561025257600080fd5b5061026d600480360381019061026891906134fc565b6108de565b005b34801561027b57600080fd5b50610296600480360381019061029191906135a1565b6109f6565b6040516102a391906133ef565b60405180910390f35b3480156102b857600080fd5b506102d360048036038101906102ce91906135ee565b610aa9565b005b3480156102e157600080fd5b506102fc60048036038101906102f79190613771565b610b09565b60405161030991906134b5565b60405180910390f35b34801561031e57600080fd5b50610327610b52565b60405161033491906133ef565b60405180910390f35b34801561034957600080fd5b50610352610be0565b005b34801561036057600080fd5b5061037b600480360381019061037691906135ee565b610ca6565b005b34801561038957600080fd5b506103a4600480360381019061039f9190613447565b610cc6565b6040516103b191906133ef565b60405180910390f35b3480156103c657600080fd5b506103e160048036038101906103dc9190613771565b610d66565b6040516103ee91906133ef565b60405180910390f35b34801561040357600080fd5b5061041e60048036038101906104199190613447565b610e1c565b60405161042b91906134b5565b60405180910390f35b34801561044057600080fd5b5061045b600480360381019061045691906137ba565b610ece565b60405161046891906137f6565b60405180910390f35b34801561047d57600080fd5b50610486610f86565b6040516104939190613832565b60405180910390f35b3480156104a857600080fd5b506104b1610fac565b6040516104be919061333b565b60405180910390f35b3480156104d357600080fd5b506104dc611004565b6040516104e991906133ef565b60405180910390f35b3480156104fe57600080fd5b50610519600480360381019061051491906135a1565b611096565b604051610526919061333b565b60405180910390f35b34801561053b57600080fd5b5061055660048036038101906105519190613879565b61114a565b005b34801561056457600080fd5b5061057f600480360381019061057a919061395a565b611160565b005b34801561058d57600080fd5b506105a860048036038101906105a391906135a1565b6111c2565b6040516105b591906134b5565b60405180910390f35b3480156105ca57600080fd5b506105e560048036038101906105e091906139dd565b61120d565b005b3480156105f357600080fd5b5061060e60048036038101906106099190613447565b611360565b60405161061b91906133ef565b60405180910390f35b34801561063057600080fd5b5061064b600480360381019061064691906135a1565b6114b2565b60405161065891906137f6565b60405180910390f35b34801561066d57600080fd5b5061068860048036038101906106839190613a5e565b611558565b604051610695919061333b565b60405180910390f35b6106b860048036038101906106b391906135a1565b6115ec565b005b3480156106c657600080fd5b506106cf611b94565b6040516106dc9190613baa565b60405180910390f35b60007f80ac58cd000000000000000000000000000000000000000000000000000000007bffffffffffffffffffffffffffffffffffffffffffffffffffffffff1916827bffffffffffffffffffffffffffffffffffffffffffffffffffffffff191614806107b057507f5b5e139f000000000000000000000000000000000000000000000000000000007bffffffffffffffffffffffffffffffffffffffffffffffffffffffff1916827bffffffffffffffffffffffffffffffffffffffffffffffffffffffff1916145b806107c057506107bf82611e0e565b5b9050919050565b6060600080546107d690613bfb565b80601f016020809104026020016040519081016040528092919081815260200182805461080290613bfb565b801561084f5780601f106108245761010080835404028352916020019161084f565b820191906000526020600020905b81548152906001019060200180831161083257829003601f168201915b5050505050905090565b600061086482611e78565b6108a3576040517f08c379a000000000000000000000000000000000000000000000000000000000815260040161089a90613c9f565b60405180910390fd5b6004600083815260200190815260200160002060009054906101000a900473ffffffffffffffffffffffffffffffffffffffff169050919050565b60006108e982610e1c565b90508073ffffffffffffffffffffffffffffffffffffffff168373ffffffffffffffffffffffffffffffffffffffff16141561095a576040517f08c379a000000000000000000000000000000000000000000000000000000000815260040161095190613d31565b60405180910390fd5b8073ffffffffffffffffffffffffffffffffffffffff16610979611ee4565b73ffffffffffffffffffffffffffffffffffffffff1614806109a857506109a7816109a2611ee4565b611558565b5b6109e7576040517f08c379a00000000000000000000000000000000000000000000000000000000081526004016109de90613dc3565b60405180910390fd5b6109f18383611eec565b505050565b6060600d8383604051610a0a929190613e13565b90815260200160405180910390208054610a2390613bfb565b80601f0160208091040260200160405190810160405280929190818152602001828054610a4f90613bfb565b8015610a9c5780601f10610a7157610100808354040283529160200191610a9c565b820191906000526020600020905b815481529060010190602001808311610a7f57829003601f168201915b5050505050905092915050565b610aba610ab4611ee4565b82611fa5565b610af9576040517f08c379a0000000000000000000000000000000000000000000000000000000008152600401610af090613e9e565b60405180910390fd5b610b04838383612083565b505050565b600c818051602081018201805184825260208301602085012081835280955050505050506000915054906101000a900473ffffffffffffffffffffffffffffffffffffffff1681565b60098054610b5f90613bfb565b80601f0160208091040260200160405190810160405280929190818152602001828054610b8b90613bfb565b8015610bd85780601f10610bad57610100808354040283529160200191610bd8565b820191906000526020600020905b815481529060010190602001808311610bbb57829003601f168201915b505050505081565b610be8610fac565b610bf157600080fd5b600047905060003373ffffffffffffffffffffffffffffffffffffffff1682604051610c1c90613eef565b60006040518083038185875af1925050503d8060008114610c59576040519150601f19603f3d011682016040523d82523d6000602084013e610c5e565b606091505b5050905080610ca2576040517f08c379a0000000000000000000000000000000000000000000000000000000008152600401610c9990613f50565b60405180910390fd5b5050565b610cc183838360405180602001604052806000815250611160565b505050565b600e6020528060005260406000206000915090508054610ce590613bfb565b80601f0160208091040260200160405190810160405280929190818152602001828054610d1190613bfb565b8015610d5e5780601f10610d3357610100808354040283529160200191610d5e565b820191906000526020600020905b815481529060010190602001808311610d4157829003601f168201915b505050505081565b600d818051602081018201805184825260208301602085012081835280955050505050506000915090508054610d9b90613bfb565b80601f0160208091040260200160405190810160405280929190818152602001828054610dc790613bfb565b8015610e145780601f10610de957610100808354040283529160200191610e14565b820191906000526020600020905b815481529060010190602001808311610df757829003601f168201915b505050505081565b6000806002600084815260200190815260200160002060009054906101000a900473ffffffffffffffffffffffffffffffffffffffff169050600073ffffffffffffffffffffffffffffffffffffffff168173ffffffffffffffffffffffffffffffffffffffff161415610ec5576040517f08c379a0000000000000000000000000000000000000000000000000000000008152600401610ebc90613fe2565b60405180910390fd5b80915050919050565b60008073ffffffffffffffffffffffffffffffffffffffff168273ffffffffffffffffffffffffffffffffffffffff161415610f3f576040517f08c379a0000000000000000000000000000000000000000000000000000000008152600401610f3690614074565b60405180910390fd5b600360008373ffffffffffffffffffffffffffffffffffffffff1673ffffffffffffffffffffffffffffffffffffffff168152602001908152602001600020549050919050565b600760009054906101000a900473ffffffffffffffffffffffffffffffffffffffff1681565b6000600760009054906101000a900473ffffffffffffffffffffffffffffffffffffffff1673ffffffffffffffffffffffffffffffffffffffff163373ffffffffffffffffffffffffffffffffffffffff1614905090565b60606001805461101390613bfb565b80601f016020809104026020016040519081016040528092919081815260200182805461103f90613bfb565b801561108c5780601f106110615761010080835404028352916020019161108c565b820191906000526020600020905b81548152906001019060200180831161106f57829003601f168201915b5050505050905090565b600060036110e784848080601f016020809104026020016040519081016040528093929190818152602001838380828437600081840152601f19601f820116905080830192505050505050506122ea565b101580156111425750600561113f84848080601f016020809104026020016040519081016040528093929190818152602001838380828437600081840152601f19601f820116905080830192505050505050506122ea565b11155b905092915050565b61115c611155611ee4565b838361249f565b5050565b61117161116b611ee4565b83611fa5565b6111b0576040517f08c379a00000000000000000000000000000000000000000000000000000000081526004016111a790613e9e565b60405180910390fd5b6111bc8484848461260c565b50505050565b6000600c83836040516111d6929190613e13565b908152602001604051809103902060009054906101000a900473ffffffffffffffffffffffffffffffffffffffff16905092915050565b600c848460405161121f929190613e13565b908152602001604051809103902060009054906101000a900473ffffffffffffffffffffffffffffffffffffffff1673ffffffffffffffffffffffffffffffffffffffff163373ffffffffffffffffffffffffffffffffffffffff16146112b2576040517f82b4290000000000000000000000000000000000000000000000000000000000815260040160405180910390fd5b3373ffffffffffffffffffffffffffffffffffffffff16600c85856040516112db929190613e13565b908152602001604051809103902060009054906101000a900473ffffffffffffffffffffffffffffffffffffffff1673ffffffffffffffffffffffffffffffffffffffff161461132a57600080fd5b8181600d868660405161133e929190613e13565b9081526020016040518091039020919061135992919061315e565b5050505050565b606061136b82611e78565b6113aa576040517f08c379a00000000000000000000000000000000000000000000000000000000081526004016113a190614106565b60405180910390fd5b60006006600084815260200190815260200160002080546113ca90613bfb565b80601f01602080910402602001604051908101604052809291908181526020018280546113f690613bfb565b80156114435780601f1061141857610100808354040283529160200191611443565b820191906000526020600020905b81548152906001019060200180831161142657829003601f168201915b505050505090506000611454612668565b905060008151141561146a5781925050506114ad565b60008251111561149f578082604051602001611487929190614157565b604051602081830303815290604052925050506114ad565b6114a88461267f565b925050505b919050565b60008061150284848080601f016020809104026020016040519081016040528093929190818152602001838380828437600081840152601f19601f820116905080830192505050505050506122ea565b90506000811161151157600080fd5b600381141561152b576706f05b59d3b20000915050611552565b600481141561154557670429d069189e0000915050611552565b67016345785d8a00009150505b92915050565b6000600560008473ffffffffffffffffffffffffffffffffffffffff1673ffffffffffffffffffffffffffffffffffffffff16815260200190815260200160002060008373ffffffffffffffffffffffffffffffffffffffff1673ffffffffffffffffffffffffffffffffffffffff16815260200190815260200160002060009054906101000a900460ff16905092915050565b600073ffffffffffffffffffffffffffffffffffffffff16600c8383604051611616929190613e13565b908152602001604051809103902060009054906101000a900473ffffffffffffffffffffffffffffffffffffffff1673ffffffffffffffffffffffffffffffffffffffff1614611692576040517f3a81d6fc00000000000000000000000000000000000000000000000000000000815260040160405180910390fd5b61169c8282611096565b6116df5781816040517f7f19f48d0000000000000000000000000000000000000000000000000000000081526004016116d69291906141a8565b60405180910390fd5b600073ffffffffffffffffffffffffffffffffffffffff16600c8383604051611709929190613e13565b908152602001604051809103902060009054906101000a900473ffffffffffffffffffffffffffffffffffffffff1673ffffffffffffffffffffffffffffffffffffffff161461175857600080fd5b60003073ffffffffffffffffffffffffffffffffffffffff1663e28f338484846040518363ffffffff1660e01b81526004016117959291906141a8565b602060405180830381865afa1580156117b2573d6000803e3d6000fd5b505050506040513d601f19601f820116820180604052508101906117d691906141e1565b90508034101561181b576040517f08c379a00000000000000000000000000000000000000000000000000000000081526004016118129061425a565b60405180910390fd5b6000838360096040516020016118339392919061435a565b60405160208183030381529060405290506000600a82600b60405160200161185d9392919061438b565b6040516020818303038152906040529050600061187a6008612726565b905060006118cb87878080601f016020809104026020016040519081016040528093929190818152602001838380828437600081840152601f19601f820116905080830192505050505050506122ea565b905060006118d882612734565b90506119cc604051806060016040528060318152602001614eb96031913989898080601f016020809104026020016040519081016040528093929190818152602001838380828437600081840152601f19601f820116905080830192505050505050506009805461194890613bfb565b80601f016020809104026020016040519081016040528092919081815260200182805461197490613bfb565b80156119c15780601f10611996576101008083540402835291602001916119c1565b820191906000526020600020905b8154815290600101906020018083116119a457829003601f168201915b505050505086612895565b6000611a02866119db87612937565b846040516020016119ee93929190614538565b604051602081830303815290604052612937565b9050600081604051602001611a1791906145e1565b6040516020818303038152906040529050611a496040518060600160405280603a8152602001614eea603a9139612acf565b611a886040518060400160405280600e81526020017f46696e616c20746f6b656e55524900000000000000000000000000000000000081525082611d72565b611aa96040518060600160405280603a8152602001614f64603a9139612acf565b611ab33386612b68565b611abd8582612b86565b33600c8b8b604051611ad0929190613e13565b908152602001604051809103902060006101000a81548173ffffffffffffffffffffffffffffffffffffffff021916908373ffffffffffffffffffffffffffffffffffffffff1602179055508989600e60008881526020019081526020016000209190611b3e92919061315e565b50611b496008612bfa565b611b886040518060400160405280601b81526020017f2573206861732072656769737465726564206120646f6d61696e21000000000081525033612c10565b50505050505050505050565b6060611bd46040518060400160405280602081526020017f47657474696e6720616c6c206e616d65732066726f6d20636f6e74726163742e815250612acf565b6000611be06008612726565b67ffffffffffffffff811115611bf957611bf8613646565b5b604051908082528060200260200182016040528015611c2c57816020015b6060815260200190600190039081611c175790505b50905060005b611c3c6008612726565b811015611d6a57600e60008281526020019081526020016000208054611c6190613bfb565b80601f0160208091040260200160405190810160405280929190818152602001828054611c8d90613bfb565b8015611cda5780601f10611caf57610100808354040283529160200191611cda565b820191906000526020600020905b815481529060010190602001808311611cbd57829003601f168201915b5050505050828281518110611cf257611cf1614603565b5b6020026020010181905250611d576040518060400160405280601781526020017f4e616d6520666f7220746f6b656e20256420697320257300000000000000000081525082848481518110611d4a57611d49614603565b5b6020026020010151612cac565b8080611d6290614661565b915050611c32565b508091505090565b611e0a8282604051602401611d889291906146aa565b6040516020818303038152906040527f4b5c4277000000000000000000000000000000000000000000000000000000007bffffffffffffffffffffffffffffffffffffffffffffffffffffffff19166020820180517bffffffffffffffffffffffffffffffffffffffffffffffffffffffff8381831617835250505050612d4b565b5050565b60007f01ffc9a7000000000000000000000000000000000000000000000000000000007bffffffffffffffffffffffffffffffffffffffffffffffffffffffff1916827bffffffffffffffffffffffffffffffffffffffffffffffffffffffff1916149050919050565b60008073ffffffffffffffffffffffffffffffffffffffff166002600084815260200190815260200160002060009054906101000a900473ffffffffffffffffffffffffffffffffffffffff1673ffffffffffffffffffffffffffffffffffffffff1614159050919050565b600033905090565b816004600083815260200190815260200160002060006101000a81548173ffffffffffffffffffffffffffffffffffffffff021916908373ffffffffffffffffffffffffffffffffffffffff160217905550808273ffffffffffffffffffffffffffffffffffffffff16611f5f83610e1c565b73ffffffffffffffffffffffffffffffffffffffff167f8c5be1e5ebec7d5bd14f71427d1e84f3dd0314c0f7b2291e5b200ac8c7c3b92560405160405180910390a45050565b6000611fb082611e78565b611fef576040517f08c379a0000000000000000000000000000000000000000000000000000000008152600401611fe690614753565b60405180910390fd5b6000611ffa83610e1c565b90508073ffffffffffffffffffffffffffffffffffffffff168473ffffffffffffffffffffffffffffffffffffffff16148061206957508373ffffffffffffffffffffffffffffffffffffffff1661205184610859565b73ffffffffffffffffffffffffffffffffffffffff16145b8061207a57506120798185611558565b5b91505092915050565b8273ffffffffffffffffffffffffffffffffffffffff166120a382610e1c565b73ffffffffffffffffffffffffffffffffffffffff16146120f9576040517f08c379a00000000000000000000000000000000000000000000000000000000081526004016120f0906147e5565b60405180910390fd5b600073ffffffffffffffffffffffffffffffffffffffff168273ffffffffffffffffffffffffffffffffffffffff161415612169576040517f08c379a000000000000000000000000000000000000000000000000000000000815260040161216090614877565b60405180910390fd5b612174838383612d74565b61217f600082611eec565b6001600360008573ffffffffffffffffffffffffffffffffffffffff1673ffffffffffffffffffffffffffffffffffffffff16815260200190815260200160002060008282546121cf9190614897565b925050819055506001600360008473ffffffffffffffffffffffffffffffffffffffff1673ffffffffffffffffffffffffffffffffffffffff168152602001908152602001600020600082825461222691906148cb565b92505081905550816002600083815260200190815260200160002060006101000a81548173ffffffffffffffffffffffffffffffffffffffff021916908373ffffffffffffffffffffffffffffffffffffffff160217905550808273ffffffffffffffffffffffffffffffffffffffff168473ffffffffffffffffffffffffffffffffffffffff167fddf252ad1be2c89b69c2b068fc378daa952ba7f163c4a11628f55a4df523b3ef60405160405180910390a46122e5838383612d79565b505050565b60008060008084519050600092505b8082101561249457600085838151811061231657612315614603565b5b602001015160f81c60f81b9050608060f81b817effffffffffffffffffffffffffffffffffffffffffffffffffffffffffffff191610156123655760018361235e91906148cb565b9250612480565b60e060f81b817effffffffffffffffffffffffffffffffffffffffffffffffffffffffffffff191610156123a7576002836123a091906148cb565b925061247f565b60f060f81b817effffffffffffffffffffffffffffffffffffffffffffffffffffffffffffff191610156123e9576003836123e291906148cb565b925061247e565b60f8801b817effffffffffffffffffffffffffffffffffffffffffffffffffffffffffffff1916101561242a5760048361242391906148cb565b925061247d565b60fc60f81b817effffffffffffffffffffffffffffffffffffffffffffffffffffffffffffff1916101561246c5760058361246591906148cb565b925061247c565b60068361247991906148cb565b92505b5b5b5b5b50828061248c90614661565b9350506122f9565b829350505050919050565b8173ffffffffffffffffffffffffffffffffffffffff168373ffffffffffffffffffffffffffffffffffffffff16141561250e576040517f08c379a00000000000000000000000000000000000000000000000000000000081526004016125059061496d565b60405180910390fd5b80600560008573ffffffffffffffffffffffffffffffffffffffff1673ffffffffffffffffffffffffffffffffffffffff16815260200190815260200160002060008473ffffffffffffffffffffffffffffffffffffffff1673ffffffffffffffffffffffffffffffffffffffff16815260200190815260200160002060006101000a81548160ff0219169083151502179055508173ffffffffffffffffffffffffffffffffffffffff168373ffffffffffffffffffffffffffffffffffffffff167f17307eab39ab6107e8899845ad3d59bd9653f200f220920489ca2b5937696c31836040516125ff919061333b565b60405180910390a3505050565b612617848484612083565b61262384848484612d7e565b612662576040517f08c379a0000000000000000000000000000000000000000000000000000000008152600401612659906149ff565b60405180910390fd5b50505050565b606060405180602001604052806000815250905090565b606061268a82611e78565b6126c9576040517f08c379a00000000000000000000000000000000000000000000000000000000081526004016126c090614a91565b60405180910390fd5b60006126d3612668565b905060008151116126f3576040518060200160405280600081525061271e565b806126fd84612734565b60405160200161270e929190614157565b6040516020818303038152906040525b915050919050565b600081600001549050919050565b6060600082141561277c576040518060400160405280600181526020017f30000000000000000000000000000000000000000000000000000000000000008152509050612890565b600082905060005b600082146127ae57808061279790614661565b915050600a826127a79190614ae0565b9150612784565b60008167ffffffffffffffff8111156127ca576127c9613646565b5b6040519080825280601f01601f1916602001820160405280156127fc5781602001600182028036833780820191505090505b5090505b60008514612889576001826128159190614897565b9150600a856128249190614b11565b603061283091906148cb565b60f81b81838151811061284657612845614603565b5b60200101907effffffffffffffffffffffffffffffffffffffffffffffffffffffffffffff1916908160001a905350600a856128829190614ae0565b9450612800565b8093505050505b919050565b612931848484846040516024016128af9493929190614b42565b6040516020818303038152906040527f9fd009f5000000000000000000000000000000000000000000000000000000007bffffffffffffffffffffffffffffffffffffffffffffffffffffffff19166020820180517bffffffffffffffffffffffffffffffffffffffffffffffffffffffff8381831617835250505050612d4b565b50505050565b606060008251905060008114156129605760405180602001604052806000815250915050612aca565b6000600360028361297191906148cb565b61297b9190614ae0565b60046129879190614b9c565b9050600060208261299891906148cb565b67ffffffffffffffff8111156129b1576129b0613646565b5b6040519080825280601f01601f1916602001820160405280156129e35781602001600182028036833780820191505090505b5090506000604051806060016040528060408152602001614f24604091399050600181016020830160005b86811015612a875760038101905062ffffff818a015116603f8160121c168401518060081b905060ff603f83600c1c1686015116810190508060081b905060ff603f8360061c1686015116810190508060081b905060ff603f831686015116810190508060e01b90508084526004840193505050612a0e565b506003860660018114612aa15760028114612ab157612abc565b613d3d60f01b6002830352612abc565b603d60f81b60018303525b508484525050819450505050505b919050565b612b6581604051602401612ae391906133ef565b6040516020818303038152906040527f41304fac000000000000000000000000000000000000000000000000000000007bffffffffffffffffffffffffffffffffffffffffffffffffffffffff19166020820180517bffffffffffffffffffffffffffffffffffffffffffffffffffffffff8381831617835250505050612d4b565b50565b612b82828260405180602001604052806000815250612f06565b5050565b612b8f82611e78565b612bce576040517f08c379a0000000000000000000000000000000000000000000000000000000008152600401612bc590614c68565b60405180910390fd5b80600660008481526020019081526020016000209080519060200190612bf59291906131e4565b505050565b6001816000016000828254019250508190555050565b612ca88282604051602401612c26929190614c88565b6040516020818303038152906040527f319af333000000000000000000000000000000000000000000000000000000007bffffffffffffffffffffffffffffffffffffffffffffffffffffffff19166020820180517bffffffffffffffffffffffffffffffffffffffffffffffffffffffff8381831617835250505050612d4b565b5050565b612d46838383604051602401612cc493929190614cb8565b6040516020818303038152906040527fa3f5c739000000000000000000000000000000000000000000000000000000007bffffffffffffffffffffffffffffffffffffffffffffffffffffffff19166020820180517bffffffffffffffffffffffffffffffffffffffffffffffffffffffff8381831617835250505050612d4b565b505050565b60008151905060006a636f6e736f6c652e6c6f679050602083016000808483855afa5050505050565b505050565b505050565b6000612d9f8473ffffffffffffffffffffffffffffffffffffffff16612f61565b15612ef9578373ffffffffffffffffffffffffffffffffffffffff1663150b7a02612dc8611ee4565b8786866040518563ffffffff1660e01b8152600401612dea9493929190614d52565b6020604051808303816000875af1925050508015612e2657506040513d601f19601f82011682018060405250810190612e239190614db3565b60015b612ea9573d8060008114612e56576040519150601f19603f3d011682016040523d82523d6000602084013e612e5b565b606091505b50600081511415612ea1576040517f08c379a0000000000000000000000000000000000000000000000000000000008152600401612e98906149ff565b60405180910390fd5b805181602001fd5b63150b7a0260e01b7bffffffffffffffffffffffffffffffffffffffffffffffffffffffff1916817bffffffffffffffffffffffffffffffffffffffffffffffffffffffff191614915050612efe565b600190505b949350505050565b612f108383612f84565b612f1d6000848484612d7e565b612f5c576040517f08c379a0000000000000000000000000000000000000000000000000000000008152600401612f53906149ff565b60405180910390fd5b505050565b6000808273ffffffffffffffffffffffffffffffffffffffff163b119050919050565b600073ffffffffffffffffffffffffffffffffffffffff168273ffffffffffffffffffffffffffffffffffffffff161415612ff4576040517f08c379a0000000000000000000000000000000000000000000000000000000008152600401612feb90614e2c565b60405180910390fd5b612ffd81611e78565b1561303d576040517f08c379a000000000000000000000000000000000000000000000000000000000815260040161303490614e98565b60405180910390fd5b61304960008383612d74565b6001600360008473ffffffffffffffffffffffffffffffffffffffff1673ffffffffffffffffffffffffffffffffffffffff168152602001908152602001600020600082825461309991906148cb565b92505081905550816002600083815260200190815260200160002060006101000a81548173ffffffffffffffffffffffffffffffffffffffff021916908373ffffffffffffffffffffffffffffffffffffffff160217905550808273ffffffffffffffffffffffffffffffffffffffff16600073ffffffffffffffffffffffffffffffffffffffff167fddf252ad1be2c89b69c2b068fc378daa952ba7f163c4a11628f55a4df523b3ef60405160405180910390a461315a60008383612d79565b5050565b82805461316a90613bfb565b90600052602060002090601f01602090048101928261318c57600085556131d3565b82601f106131a557803560ff19168380011785556131d3565b828001600101855582156131d3579182015b828111156131d25782358255916020019190600101906131b7565b5b5090506131e0919061326a565b5090565b8280546131f090613bfb565b90600052602060002090601f0160209004810192826132125760008555613259565b82601f1061322b57805160ff1916838001178555613259565b82800160010185558215613259579182015b8281111561325857825182559160200191906001019061323d565b5b509050613266919061326a565b5090565b5b8082111561328357600081600090555060010161326b565b5090565b6000604051905090565b600080fd5b600080fd5b60007fffffffff0000000000000000000000000000000000000000000000000000000082169050919050565b6132d08161329b565b81146132db57600080fd5b50565b6000813590506132ed816132c7565b92915050565b60006020828403121561330957613308613291565b5b6000613317848285016132de565b91505092915050565b60008115159050919050565b61333581613320565b82525050565b6000602082019050613350600083018461332c565b92915050565b600081519050919050565b600082825260208201905092915050565b60005b83811015613390578082015181840152602081019050613375565b8381111561339f576000848401525b50505050565b6000601f19601f8301169050919050565b60006133c182613356565b6133cb8185613361565b93506133db818560208601613372565b6133e4816133a5565b840191505092915050565b6000602082019050818103600083015261340981846133b6565b905092915050565b6000819050919050565b61342481613411565b811461342f57600080fd5b50565b6000813590506134418161341b565b92915050565b60006020828403121561345d5761345c613291565b5b600061346b84828501613432565b91505092915050565b600073ffffffffffffffffffffffffffffffffffffffff82169050919050565b600061349f82613474565b9050919050565b6134af81613494565b82525050565b60006020820190506134ca60008301846134a6565b92915050565b6134d981613494565b81146134e457600080fd5b50565b6000813590506134f6816134d0565b92915050565b6000806040838503121561351357613512613291565b5b6000613521858286016134e7565b925050602061353285828601613432565b9150509250929050565b600080fd5b600080fd5b600080fd5b60008083601f8401126135615761356061353c565b5b8235905067ffffffffffffffff81111561357e5761357d613541565b5b60208301915083600182028301111561359a57613599613546565b5b9250929050565b600080602083850312156135b8576135b7613291565b5b600083013567ffffffffffffffff8111156135d6576135d5613296565b5b6135e28582860161354b565b92509250509250929050565b60008060006060848603121561360757613606613291565b5b6000613615868287016134e7565b9350506020613626868287016134e7565b925050604061363786828701613432565b9150509250925092565b600080fd5b7f4e487b7100000000000000000000000000000000000000000000000000000000600052604160045260246000fd5b61367e826133a5565b810181811067ffffffffffffffff8211171561369d5761369c613646565b5b80604052505050565b60006136b0613287565b90506136bc8282613675565b919050565b600067ffffffffffffffff8211156136dc576136db613646565b5b6136e5826133a5565b9050602081019050919050565b82818337600083830152505050565b600061371461370f846136c1565b6136a6565b9050828152602081018484840111156137305761372f613641565b5b61373b8482856136f2565b509392505050565b600082601f8301126137585761375761353c565b5b8135613768848260208601613701565b91505092915050565b60006020828403121561378757613786613291565b5b600082013567ffffffffffffffff8111156137a5576137a4613296565b5b6137b184828501613743565b91505092915050565b6000602082840312156137d0576137cf613291565b5b60006137de848285016134e7565b91505092915050565b6137f081613411565b82525050565b600060208201905061380b60008301846137e7565b92915050565b600061381c82613474565b9050919050565b61382c81613811565b82525050565b60006020820190506138476000830184613823565b92915050565b61385681613320565b811461386157600080fd5b50565b6000813590506138738161384d565b92915050565b600080604083850312156138905761388f613291565b5b600061389e858286016134e7565b92505060206138af85828601613864565b9150509250929050565b600067ffffffffffffffff8211156138d4576138d3613646565b5b6138dd826133a5565b9050602081019050919050565b60006138fd6138f8846138b9565b6136a6565b90508281526020810184848401111561391957613918613641565b5b6139248482856136f2565b509392505050565b600082601f8301126139415761394061353c565b5b81356139518482602086016138ea565b91505092915050565b6000806000806080858703121561397457613973613291565b5b6000613982878288016134e7565b9450506020613993878288016134e7565b93505060406139a487828801613432565b925050606085013567ffffffffffffffff8111156139c5576139c4613296565b5b6139d18782880161392c565b91505092959194509250565b600080600080604085870312156139f7576139f6613291565b5b600085013567ffffffffffffffff811115613a1557613a14613296565b5b613a218782880161354b565b9450945050602085013567ffffffffffffffff811115613a4457613a43613296565b5b613a508782880161354b565b925092505092959194509250565b60008060408385031215613a7557613a74613291565b5b6000613a83858286016134e7565b9250506020613a94858286016134e7565b9150509250929050565b600081519050919050565b600082825260208201905092915050565b6000819050602082019050919050565b600082825260208201905092915050565b6000613ae682613356565b613af08185613aca565b9350613b00818560208601613372565b613b09816133a5565b840191505092915050565b6000613b208383613adb565b905092915050565b6000602082019050919050565b6000613b4082613a9e565b613b4a8185613aa9565b935083602082028501613b5c85613aba565b8060005b85811015613b985784840389528151613b798582613b14565b9450613b8483613b28565b925060208a01995050600181019050613b60565b50829750879550505050505092915050565b60006020820190508181036000830152613bc48184613b35565b905092915050565b7f4e487b7100000000000000000000000000000000000000000000000000000000600052602260045260246000fd5b60006002820490506001821680613c1357607f821691505b60208210811415613c2757613c26613bcc565b5b50919050565b7f4552433732313a20617070726f76656420717565727920666f72206e6f6e657860008201527f697374656e7420746f6b656e0000000000000000000000000000000000000000602082015250565b6000613c89602c83613361565b9150613c9482613c2d565b604082019050919050565b60006020820190508181036000830152613cb881613c7c565b9050919050565b7f4552433732313a20617070726f76616c20746f2063757272656e74206f776e6560008201527f7200000000000000000000000000000000000000000000000000000000000000602082015250565b6000613d1b602183613361565b9150613d2682613cbf565b604082019050919050565b60006020820190508181036000830152613d4a81613d0e565b9050919050565b7f4552433732313a20617070726f76652063616c6c6572206973206e6f74206f7760008201527f6e6572206e6f7220617070726f76656420666f7220616c6c0000000000000000602082015250565b6000613dad603883613361565b9150613db882613d51565b604082019050919050565b60006020820190508181036000830152613ddc81613da0565b9050919050565b600081905092915050565b6000613dfa8385613de3565b9350613e078385846136f2565b82840190509392505050565b6000613e20828486613dee565b91508190509392505050565b7f4552433732313a207472616e736665722063616c6c6572206973206e6f74206f60008201527f776e6572206e6f7220617070726f766564000000000000000000000000000000602082015250565b6000613e88603183613361565b9150613e9382613e2c565b604082019050919050565b60006020820190508181036000830152613eb781613e7b565b9050919050565b600081905092915050565b50565b6000613ed9600083613ebe565b9150613ee482613ec9565b600082019050919050565b6000613efa82613ecc565b9150819050919050565b7f4661696c656420746f207769746864726177204d617469630000000000000000600082015250565b6000613f3a601883613361565b9150613f4582613f04565b602082019050919050565b60006020820190508181036000830152613f6981613f2d565b9050919050565b7f4552433732313a206f776e657220717565727920666f72206e6f6e657869737460008201527f656e7420746f6b656e0000000000000000000000000000000000000000000000602082015250565b6000613fcc602983613361565b9150613fd782613f70565b604082019050919050565b60006020820190508181036000830152613ffb81613fbf565b9050919050565b7f4552433732313a2062616c616e636520717565727920666f7220746865207a6560008201527f726f206164647265737300000000000000000000000000000000000000000000602082015250565b600061405e602a83613361565b915061406982614002565b604082019050919050565b6000602082019050818103600083015261408d81614051565b9050919050565b7f45524337323155524953746f726167653a2055524920717565727920666f722060008201527f6e6f6e6578697374656e7420746f6b656e000000000000000000000000000000602082015250565b60006140f0603183613361565b91506140fb82614094565b604082019050919050565b6000602082019050818103600083015261411f816140e3565b9050919050565b600061413182613356565b61413b8185613de3565b935061414b818560208601613372565b80840191505092915050565b60006141638285614126565b915061416f8284614126565b91508190509392505050565b60006141878385613361565b93506141948385846136f2565b61419d836133a5565b840190509392505050565b600060208201905081810360008301526141c381848661417b565b90509392505050565b6000815190506141db8161341b565b92915050565b6000602082840312156141f7576141f6613291565b5b6000614205848285016141cc565b91505092915050565b7f4e6f7420656e6f756768204d4154494321000000000000000000000000000000600082015250565b6000614244601183613361565b915061424f8261420e565b602082019050919050565b6000602082019050818103600083015261427381614237565b9050919050565b7f2e00000000000000000000000000000000000000000000000000000000000000600082015250565b60006142b0600183613de3565b91506142bb8261427a565b600182019050919050565b60008190508160005260206000209050919050565b600081546142e881613bfb565b6142f28186613de3565b9450600182166000811461430d576001811461431e57614351565b60ff19831686528186019350614351565b614327856142c6565b60005b838110156143495781548189015260018201915060208101905061432a565b838801955050505b50505092915050565b6000614367828587613dee565b9150614372826142a3565b915061437e82846142db565b9150819050949350505050565b600061439782866142db565b91506143a38285614126565b91506143af82846142db565b9150819050949350505050565b7f7b226e616d65223a202200000000000000000000000000000000000000000000600082015250565b60006143f2600a83613de3565b91506143fd826143bc565b600a82019050919050565b7f222c20226465736372697074696f6e223a20224120646f6d61696e206f6e207460008201527f68652047616e6747616e67206e616d652053657276696365222c2022696d616760208201527f65223a2022646174613a696d6167652f7376672b786d6c3b6261736536342c00604082015250565b600061448a605f83613de3565b915061449582614408565b605f82019050919050565b7f222c226c656e677468223a220000000000000000000000000000000000000000600082015250565b60006144d6600c83613de3565b91506144e1826144a0565b600c82019050919050565b7f227d000000000000000000000000000000000000000000000000000000000000600082015250565b6000614522600283613de3565b915061452d826144ec565b600282019050919050565b6000614543826143e5565b915061454f8286614126565b915061455a8261447d565b91506145668285614126565b9150614571826144c9565b915061457d8284614126565b915061458882614515565b9150819050949350505050565b7f646174613a6170706c69636174696f6e2f6a736f6e3b6261736536342c000000600082015250565b60006145cb601d83613de3565b91506145d682614595565b601d82019050919050565b60006145ec826145be565b91506145f88284614126565b915081905092915050565b7f4e487b7100000000000000000000000000000000000000000000000000000000600052603260045260246000fd5b7f4e487b7100000000000000000000000000000000000000000000000000000000600052601160045260246000fd5b600061466c82613411565b91507fffffffffffffffffffffffffffffffffffffffffffffffffffffffffffffffff82141561469f5761469e614632565b5b600182019050919050565b600060408201905081810360008301526146c481856133b6565b905081810360208301526146d881846133b6565b90509392505050565b7f4552433732313a206f70657261746f7220717565727920666f72206e6f6e657860008201527f697374656e7420746f6b656e0000000000000000000000000000000000000000602082015250565b600061473d602c83613361565b9150614748826146e1565b604082019050919050565b6000602082019050818103600083015261476c81614730565b9050919050565b7f4552433732313a207472616e736665722066726f6d20696e636f72726563742060008201527f6f776e6572000000000000000000000000000000000000000000000000000000602082015250565b60006147cf602583613361565b91506147da82614773565b604082019050919050565b600060208201905081810360008301526147fe816147c2565b9050919050565b7f4552433732313a207472616e7366657220746f20746865207a65726f2061646460008201527f7265737300000000000000000000000000000000000000000000000000000000602082015250565b6000614861602483613361565b915061486c82614805565b604082019050919050565b6000602082019050818103600083015261489081614854565b9050919050565b60006148a282613411565b91506148ad83613411565b9250828210156148c0576148bf614632565b5b828203905092915050565b60006148d682613411565b91506148e183613411565b9250827fffffffffffffffffffffffffffffffffffffffffffffffffffffffffffffffff0382111561491657614915614632565b5b828201905092915050565b7f4552433732313a20617070726f766520746f2063616c6c657200000000000000600082015250565b6000614957601983613361565b915061496282614921565b602082019050919050565b600060208201905081810360008301526149868161494a565b9050919050565b7f4552433732313a207472616e7366657220746f206e6f6e20455243373231526560008201527f63656976657220696d706c656d656e7465720000000000000000000000000000602082015250565b60006149e9603283613361565b91506149f48261498d565b604082019050919050565b60006020820190508181036000830152614a18816149dc565b9050919050565b7f4552433732314d657461646174613a2055524920717565727920666f72206e6f60008201527f6e6578697374656e7420746f6b656e0000000000000000000000000000000000602082015250565b6000614a7b602f83613361565b9150614a8682614a1f565b604082019050919050565b60006020820190508181036000830152614aaa81614a6e565b9050919050565b7f4e487b7100000000000000000000000000000000000000000000000000000000600052601260045260246000fd5b6000614aeb82613411565b9150614af683613411565b925082614b0657614b05614ab1565b5b828204905092915050565b6000614b1c82613411565b9150614b2783613411565b925082614b3757614b36614ab1565b5b828206905092915050565b60006080820190508181036000830152614b5c81876133b6565b90508181036020830152614b7081866133b6565b90508181036040830152614b8481856133b6565b9050614b9360608301846137e7565b95945050505050565b6000614ba782613411565b9150614bb283613411565b9250817fffffffffffffffffffffffffffffffffffffffffffffffffffffffffffffffff0483118215151615614beb57614bea614632565b5b828202905092915050565b7f45524337323155524953746f726167653a2055524920736574206f66206e6f6e60008201527f6578697374656e7420746f6b656e000000000000000000000000000000000000602082015250565b6000614c52602e83613361565b9150614c5d82614bf6565b604082019050919050565b60006020820190508181036000830152614c8181614c45565b9050919050565b60006040820190508181036000830152614ca281856133b6565b9050614cb160208301846134a6565b9392505050565b60006060820190508181036000830152614cd281866133b6565b9050614ce160208301856137e7565b8181036040830152614cf381846133b6565b9050949350505050565b600081519050919050565b600082825260208201905092915050565b6000614d2482614cfd565b614d2e8185614d08565b9350614d3e818560208601613372565b614d47816133a5565b840191505092915050565b6000608082019050614d6760008301876134a6565b614d7460208301866134a6565b614d8160408301856137e7565b8181036060830152614d938184614d19565b905095945050505050565b600081519050614dad816132c7565b92915050565b600060208284031215614dc957614dc8613291565b5b6000614dd784828501614d9e565b91505092915050565b7f4552433732313a206d696e7420746f20746865207a65726f2061646472657373600082015250565b6000614e16602083613361565b9150614e2182614de0565b602082019050919050565b60006020820190508181036000830152614e4581614e09565b9050919050565b7f4552433732313a20746f6b656e20616c7265616479206d696e74656400000000600082015250565b6000614e82601c83613361565b9150614e8d82614e4c565b602082019050919050565b60006020820190508181036000830152614eb181614e75565b905091905056fe5265676973746572696e672025732e2573206f6e2074686520636f6e7472616374207769746820746f6b656e49442025640a2d2d2d2d2d2d2d2d2d2d2d2d2d2d2d2d2d2d2d2d2d2d2d2d2d2d2d2d2d2d2d2d2d2d2d2d2d2d2d2d2d2d2d2d2d2d2d2d2d2d2d2d2d2d2d2d2d4142434445464748494a4b4c4d4e4f505152535455565758595a6162636465666768696a6b6c6d6e6f707172737475767778797a303132333435363738392b2f2d2d2d2d2d2d2d2d2d2d2d2d2d2d2d2d2d2d2d2d2d2d2d2d2d2d2d2d2d2d2d2d2d2d2d2d2d2d2d2d2d2d2d2d2d2d2d2d2d2d2d2d2d2d2d2d2d0aa26469706673582212201679a1401d92524d2fa003119a5e25333df43a7536200a069525369ee5d678f464736f6c634300080a00333c73766720786d6c6e733d22687474703a2f2f7777772e77332e6f72672f323030302f737667222077696474683d2232373022206865696768743d22323730222066696c6c3d226e6f6e65223e3c706174682066696c6c3d2275726c282361292220643d224d302030683237307632373048307a222f3e3c646566733e3c66696c7465722069643d22622220636f6c6f722d696e746572706f6c6174696f6e2d66696c746572733d2273524742222066696c746572556e6974733d227573657253706163654f6e55736522206865696768743d22323730222077696474683d22323730223e3c666544726f70536861646f772064783d2230222064793d22312220737464446576696174696f6e3d22322220666c6f6f642d6f7061636974793d222e323235222077696474683d223230302522206865696768743d2232303025222f3e3c2f66696c7465723e3c2f646566733e3c7061746820643d224d37322e3836332034322e39343961342e33383220342e3338322030203020302d342e33393420306c2d31302e30383120362e3033322d362e383520332e3933342d31302e30383120362e30333261342e33383220342e3338322030203020312d342e33393420306c2d382e3031332d342e37323161342e353220342e35322030203020312d312e3538392d312e36313620342e353420342e35342030203020312d2e3630382d322e313837762d392e333161342e323720342e3237203020302031202e3537322d322e32303820342e323520342e323520302030203120312e3632352d312e3539356c372e3838342d342e353961342e33383220342e33383220302030203120342e33393420306c372e38383420342e353961342e353220342e353220302030203120312e35383920312e36313620342e353420342e3534203020302031202e36303820322e31383776362e3033326c362e38352d342e303635762d362e30333261342e323720342e32372030203020302d2e3537322d322e32303820342e323520342e32352030203020302d312e3632352d312e3539354c34312e3435362032342e353961342e33383220342e3338322030203020302d342e33393420306c2d31342e38363420382e36353561342e323520342e32352030203020302d312e36323520312e35393520342e32373320342e3237332030203020302d2e35373220322e3230387631372e34343161342e323720342e3237203020302030202e35373220322e32303820342e323520342e323520302030203020312e36323520312e3539356c31342e38363420382e36353561342e33383220342e33383220302030203020342e33393420306c31302e3038312d352e39303120362e38352d342e3036352031302e3038312d352e39303161342e33383220342e33383220302030203120342e33393420306c372e38383420342e353961342e353220342e353220302030203120312e35383920312e36313620342e353420342e3534203020302031202e36303820322e31383776392e33313161342e323720342e32372030203020312d2e35373220322e32303820342e323520342e32352030203020312d312e36323520312e3539356c2d372e38383420342e37323161342e33383220342e3338322030203020312d342e33393420306c2d372e3838342d342e353961342e353220342e35322030203020312d312e3538392d312e36313620342e353320342e35332030203020312d2e3630382d322e313837762d362e3033326c2d362e383520342e30363576362e30333261342e323720342e3237203020302030202e35373220322e32303820342e323520342e323520302030203020312e36323520312e3539356c31342e38363420382e36353561342e33383220342e33383220302030203020342e33393420306c31342e3836342d382e36353561342e35343520342e35343520302030203020322e3139382d332e3830335635352e35333861342e323720342e32372030203020302d2e3537322d322e32303820342e323520342e32352030203020302d312e3632352d312e3539356c2d31342e3939332d382e3738367a222066696c6c3d2223666666222f3e3c646566733e3c6c696e6561724772616469656e742069643d2261222078313d2230222079313d2230222078323d22323730222079323d2232373022206772616469656e74556e6974733d227573657253706163654f6e557365223e3c73746f702073746f702d636f6c6f723d2223396130336666222f3e3c73746f70206f66667365743d2231222073746f702d636f6c6f723d2223643930643162222073746f702d6f7061636974793d222e3939222f3e3c2f6c696e6561724772616469656e743e3c2f646566733e3c7465787420783d2233322e352220793d223233312220666f6e742d73697a653d223234222066696c6c3d2223666666222066696c7465723d2275726c282362292220666f6e742d66616d696c793d22506c7573204a616b617274612053616e732c44656a6156752053616e732c4e6f746f20436f6c6f7220456d6f6a692c4170706c6520436f6c6f7220456d6f6a692c73616e732d73657269662220666f6e742d7765696768743d22626f6c64223e",
    "linkReferences": {},
    "deployedLinkReferences": {}
}