{
    "_format": "hh-sol-artifact-1",
    "contractName": "Domains",
    "sourceName": "contracts/Domains.sol",
    "abi": [
        {
            "inputs": [
                {
                    "internalType": "string",
                    "name": "_tld",
                    "type": "string"
                }
            ],
            "stateMutability": "payable",
            "type": "constructor"
        },
        {
            "anonymous": false,
            "inputs": [
                {
                    "indexed": true,
                    "internalType": "address",
                    "name": "owner",
                    "type": "address"
                },
                {
                    "indexed": true,
                    "internalType": "address",
                    "name": "approved",
                    "type": "address"
                },
                {
                    "indexed": true,
                    "internalType": "uint256",
                    "name": "tokenId",
                    "type": "uint256"
                }
            ],
            "name": "Approval",
            "type": "event"
        },
        {
            "anonymous": false,
            "inputs": [
                {
                    "indexed": true,
                    "internalType": "address",
                    "name": "owner",
                    "type": "address"
                },
                {
                    "indexed": true,
                    "internalType": "address",
                    "name": "operator",
                    "type": "address"
                },
                {
                    "indexed": false,
                    "internalType": "bool",
                    "name": "approved",
                    "type": "bool"
                }
            ],
            "name": "ApprovalForAll",
            "type": "event"
        },
        {
            "anonymous": false,
            "inputs": [
                {
                    "indexed": true,
                    "internalType": "address",
                    "name": "from",
                    "type": "address"
                },
                {
                    "indexed": true,
                    "internalType": "address",
                    "name": "to",
                    "type": "address"
                },
                {
                    "indexed": true,
                    "internalType": "uint256",
                    "name": "tokenId",
                    "type": "uint256"
                }
            ],
            "name": "Transfer",
            "type": "event"
        },
        {
            "inputs": [
                {
                    "internalType": "address",
                    "name": "to",
                    "type": "address"
                },
                {
                    "internalType": "uint256",
                    "name": "tokenId",
                    "type": "uint256"
                }
            ],
            "name": "approve",
            "outputs": [],
            "stateMutability": "nonpayable",
            "type": "function"
        },
        {
            "inputs": [
                {
                    "internalType": "address",
                    "name": "owner",
                    "type": "address"
                }
            ],
            "name": "balanceOf",
            "outputs": [
                {
                    "internalType": "uint256",
                    "name": "",
                    "type": "uint256"
                }
            ],
            "stateMutability": "view",
            "type": "function"
        },
        {
            "inputs": [
                {
                    "internalType": "string",
                    "name": "",
                    "type": "string"
                }
            ],
            "name": "domains",
            "outputs": [
                {
                    "internalType": "address",
                    "name": "",
                    "type": "address"
                }
            ],
            "stateMutability": "view",
            "type": "function"
        },
        {
            "inputs": [
                {
                    "internalType": "string",
                    "name": "name",
                    "type": "string"
                }
            ],
            "name": "getAddress",
            "outputs": [
                {
                    "internalType": "address",
                    "name": "",
                    "type": "address"
                }
            ],
            "stateMutability": "view",
            "type": "function"
        },
        {
            "inputs": [
                {
                    "internalType": "uint256",
                    "name": "tokenId",
                    "type": "uint256"
                }
            ],
            "name": "getApproved",
            "outputs": [
                {
                    "internalType": "address",
                    "name": "",
                    "type": "address"
                }
            ],
            "stateMutability": "view",
            "type": "function"
        },
        {
            "inputs": [
                {
                    "internalType": "string",
                    "name": "name",
                    "type": "string"
                }
            ],
            "name": "getRecord",
            "outputs": [
                {
                    "internalType": "string",
                    "name": "",
                    "type": "string"
                }
            ],
            "stateMutability": "view",
            "type": "function"
        },
        {
            "inputs": [
                {
                    "internalType": "address",
                    "name": "owner",
                    "type": "address"
                },
                {
                    "internalType": "address",
                    "name": "operator",
                    "type": "address"
                }
            ],
            "name": "isApprovedForAll",
            "outputs": [
                {
                    "internalType": "bool",
                    "name": "",
                    "type": "bool"
                }
            ],
            "stateMutability": "view",
            "type": "function"
        },
        {
            "inputs": [
                {
                    "internalType": "string",
                    "name": "name",
                    "type": "string"
                }
            ],
            "name": "lengthPrice",
            "outputs": [
                {
                    "internalType": "uint256",
                    "name": "",
                    "type": "uint256"
                }
            ],
            "stateMutability": "pure",
            "type": "function"
        },
        {
            "inputs": [],
            "name": "name",
            "outputs": [
                {
                    "internalType": "string",
                    "name": "",
                    "type": "string"
                }
            ],
            "stateMutability": "view",
            "type": "function"
        },
        {
            "inputs": [
                {
                    "internalType": "uint256",
                    "name": "tokenId",
                    "type": "uint256"
                }
            ],
            "name": "ownerOf",
            "outputs": [
                {
                    "internalType": "address",
                    "name": "",
                    "type": "address"
                }
            ],
            "stateMutability": "view",
            "type": "function"
        },
        {
            "inputs": [
                {
                    "internalType": "string",
                    "name": "",
                    "type": "string"
                }
            ],
            "name": "records",
            "outputs": [
                {
                    "internalType": "string",
                    "name": "",
                    "type": "string"
                }
            ],
            "stateMutability": "view",
            "type": "function"
        },
        {
            "inputs": [
                {
                    "internalType": "string",
                    "name": "name",
                    "type": "string"
                }
            ],
            "name": "register",
            "outputs": [],
            "stateMutability": "payable",
            "type": "function"
        },
        {
            "inputs": [
                {
                    "internalType": "address",
                    "name": "from",
                    "type": "address"
                },
                {
                    "internalType": "address",
                    "name": "to",
                    "type": "address"
                },
                {
                    "internalType": "uint256",
                    "name": "tokenId",
                    "type": "uint256"
                }
            ],
            "name": "safeTransferFrom",
            "outputs": [],
            "stateMutability": "nonpayable",
            "type": "function"
        },
        {
            "inputs": [
                {
                    "internalType": "address",
                    "name": "from",
                    "type": "address"
                },
                {
                    "internalType": "address",
                    "name": "to",
                    "type": "address"
                },
                {
                    "internalType": "uint256",
                    "name": "tokenId",
                    "type": "uint256"
                },
                {
                    "internalType": "bytes",
                    "name": "_data",
                    "type": "bytes"
                }
            ],
            "name": "safeTransferFrom",
            "outputs": [],
            "stateMutability": "nonpayable",
            "type": "function"
        },
        {
            "inputs": [
                {
                    "internalType": "address",
                    "name": "operator",
                    "type": "address"
                },
                {
                    "internalType": "bool",
                    "name": "approved",
                    "type": "bool"
                }
            ],
            "name": "setApprovalForAll",
            "outputs": [],
            "stateMutability": "nonpayable",
            "type": "function"
        },
        {
            "inputs": [
                {
                    "internalType": "string",
                    "name": "name",
                    "type": "string"
                },
                {
                    "internalType": "string",
                    "name": "record",
                    "type": "string"
                }
            ],
            "name": "setRecord",
            "outputs": [],
            "stateMutability": "nonpayable",
            "type": "function"
        },
        {
            "inputs": [
                {
                    "internalType": "bytes4",
                    "name": "interfaceId",
                    "type": "bytes4"
                }
            ],
            "name": "supportsInterface",
            "outputs": [
                {
                    "internalType": "bool",
                    "name": "",
                    "type": "bool"
                }
            ],
            "stateMutability": "view",
            "type": "function"
        },
        {
            "inputs": [],
            "name": "symbol",
            "outputs": [
                {
                    "internalType": "string",
                    "name": "",
                    "type": "string"
                }
            ],
            "stateMutability": "view",
            "type": "function"
        },
        {
            "inputs": [],
            "name": "tld",
            "outputs": [
                {
                    "internalType": "string",
                    "name": "",
                    "type": "string"
                }
            ],
            "stateMutability": "view",
            "type": "function"
        },
        {
            "inputs": [
                {
                    "internalType": "uint256",
                    "name": "tokenId",
                    "type": "uint256"
                }
            ],
            "name": "tokenURI",
            "outputs": [
                {
                    "internalType": "string",
                    "name": "",
                    "type": "string"
                }
            ],
            "stateMutability": "view",
            "type": "function"
        },
        {
            "inputs": [
                {
                    "internalType": "address",
                    "name": "from",
                    "type": "address"
                },
                {
                    "internalType": "address",
                    "name": "to",
                    "type": "address"
                },
                {
                    "internalType": "uint256",
                    "name": "tokenId",
                    "type": "uint256"
                }
            ],
            "name": "transferFrom",
            "outputs": [],
            "stateMutability": "nonpayable",
            "type": "function"
        }
    ],
    "bytecode": "0x6080604052604051806107a0016040528061076e815260200162004b5061076e9139600990805190602001906200003892919062000287565b506040518060400160405280600d81526020017f3c2f746578743e3c2f7376673e00000000000000000000000000000000000000815250600a90805190602001906200008692919062000287565b50604051620052be380380620052be8339818101604052810190620000ac9190620004d4565b6040518060400160405280601581526020017f47616e6747616e67204e616d65205365727669636500000000000000000000008152506040518060400160405280600381526020017f474e53000000000000000000000000000000000000000000000000000000000081525081600090805190602001906200013092919062000287565b5080600190805190602001906200014992919062000287565b50505080600890805190602001906200016492919062000287565b50620001b16040518060400160405280601881526020017f2573206e616d652073657276696365206465706c6f796564000000000000000081525082620001b860201b620015bd1760201c565b5062000622565b6200025a8282604051602401620001d192919062000582565b6040516020818303038152906040527f4b5c4277000000000000000000000000000000000000000000000000000000007bffffffffffffffffffffffffffffffffffffffffffffffffffffffff19166020820180517bffffffffffffffffffffffffffffffffffffffffffffffffffffffff83818316178352505050506200025e60201b60201c565b5050565b60008151905060006a636f6e736f6c652e6c6f679050602083016000808483855afa5050505050565b8280546200029590620005ec565b90600052602060002090601f016020900481019282620002b9576000855562000305565b82601f10620002d457805160ff191683800117855562000305565b8280016001018555821562000305579182015b8281111562000304578251825591602001919060010190620002e7565b5b50905062000314919062000318565b5090565b5b808211156200033357600081600090555060010162000319565b5090565b6000604051905090565b600080fd5b600080fd5b600080fd5b600080fd5b6000601f19601f8301169050919050565b7f4e487b7100000000000000000000000000000000000000000000000000000000600052604160045260246000fd5b620003a08262000355565b810181811067ffffffffffffffff82111715620003c257620003c162000366565b5b80604052505050565b6000620003d762000337565b9050620003e5828262000395565b919050565b600067ffffffffffffffff82111562000408576200040762000366565b5b620004138262000355565b9050602081019050919050565b60005b838110156200044057808201518184015260208101905062000423565b8381111562000450576000848401525b50505050565b60006200046d6200046784620003ea565b620003cb565b9050828152602081018484840111156200048c576200048b62000350565b5b6200049984828562000420565b509392505050565b600082601f830112620004b957620004b86200034b565b5b8151620004cb84826020860162000456565b91505092915050565b600060208284031215620004ed57620004ec62000341565b5b600082015167ffffffffffffffff8111156200050e576200050d62000346565b5b6200051c84828501620004a1565b91505092915050565b600081519050919050565b600082825260208201905092915050565b60006200054e8262000525565b6200055a818562000530565b93506200056c81856020860162000420565b620005778162000355565b840191505092915050565b600060408201905081810360008301526200059e818562000541565b90508181036020830152620005b4818462000541565b90509392505050565b7f4e487b7100000000000000000000000000000000000000000000000000000000600052602260045260246000fd5b600060028204905060018216806200060557607f821691505b602082108114156200061c576200061b620005bd565b5b50919050565b61451e80620006326000396000f3fe60806040526004361061012a5760003560e01c80636352211e116100ab578063bf40fac11161006f578063bf40fac114610428578063c1880a9814610465578063c87b56dd1461048e578063e28f3384146104cb578063e985e9c514610508578063f2c298be146105455761012a565b80636352211e1461033157806370a082311461036e57806395d89b41146103ab578063a22cb465146103d6578063b88d4fde146103ff5761012a565b806323b872dd116100f257806323b872dd1461023a57806326449235146102635780632d551432146102a057806342842e0e146102cb578063541e771d146102f45761012a565b806301ffc9a71461012f57806306fdde031461016c578063081812fc14610197578063095ea7b3146101d457806311dd8845146101fd575b600080fd5b34801561013b57600080fd5b5061015660048036038101906101519190612a9f565b610561565b6040516101639190612ae7565b60405180910390f35b34801561017857600080fd5b50610181610643565b60405161018e9190612b9b565b60405180910390f35b3480156101a357600080fd5b506101be60048036038101906101b99190612bf3565b6106d5565b6040516101cb9190612c61565b60405180910390f35b3480156101e057600080fd5b506101fb60048036038101906101f69190612ca8565b61075a565b005b34801561020957600080fd5b50610224600480360381019061021f9190612d4d565b610872565b6040516102319190612b9b565b60405180910390f35b34801561024657600080fd5b50610261600480360381019061025c9190612d9a565b610925565b005b34801561026f57600080fd5b5061028a60048036038101906102859190612f1d565b610985565b6040516102979190612c61565b60405180910390f35b3480156102ac57600080fd5b506102b56109ce565b6040516102c29190612b9b565b60405180910390f35b3480156102d757600080fd5b506102f260048036038101906102ed9190612d9a565b610a5c565b005b34801561030057600080fd5b5061031b60048036038101906103169190612f1d565b610a7c565b6040516103289190612b9b565b60405180910390f35b34801561033d57600080fd5b5061035860048036038101906103539190612bf3565b610b32565b6040516103659190612c61565b60405180910390f35b34801561037a57600080fd5b5061039560048036038101906103909190612f66565b610be4565b6040516103a29190612fa2565b60405180910390f35b3480156103b757600080fd5b506103c0610c9c565b6040516103cd9190612b9b565b60405180910390f35b3480156103e257600080fd5b506103fd60048036038101906103f89190612fe9565b610d2e565b005b34801561040b57600080fd5b50610426600480360381019061042191906130ca565b610d44565b005b34801561043457600080fd5b5061044f600480360381019061044a9190612d4d565b610da6565b60405161045c9190612c61565b60405180910390f35b34801561047157600080fd5b5061048c6004803603810190610487919061314d565b610df1565b005b34801561049a57600080fd5b506104b560048036038101906104b09190612bf3565b610e9f565b6040516104c29190612b9b565b60405180910390f35b3480156104d757600080fd5b506104f260048036038101906104ed9190612d4d565b610ff1565b6040516104ff9190612fa2565b60405180910390f35b34801561051457600080fd5b5061052f600480360381019061052a91906131ce565b611097565b60405161053c9190612ae7565b60405180910390f35b61055f600480360381019061055a9190612d4d565b61112b565b005b60007f80ac58cd000000000000000000000000000000000000000000000000000000007bffffffffffffffffffffffffffffffffffffffffffffffffffffffff1916827bffffffffffffffffffffffffffffffffffffffffffffffffffffffff1916148061062c57507f5b5e139f000000000000000000000000000000000000000000000000000000007bffffffffffffffffffffffffffffffffffffffffffffffffffffffff1916827bffffffffffffffffffffffffffffffffffffffffffffffffffffffff1916145b8061063c575061063b82611659565b5b9050919050565b6060600080546106529061323d565b80601f016020809104026020016040519081016040528092919081815260200182805461067e9061323d565b80156106cb5780601f106106a0576101008083540402835291602001916106cb565b820191906000526020600020905b8154815290600101906020018083116106ae57829003601f168201915b5050505050905090565b60006106e0826116c3565b61071f576040517f08c379a0000000000000000000000000000000000000000000000000000000008152600401610716906132e1565b60405180910390fd5b6004600083815260200190815260200160002060009054906101000a900473ffffffffffffffffffffffffffffffffffffffff169050919050565b600061076582610b32565b90508073ffffffffffffffffffffffffffffffffffffffff168373ffffffffffffffffffffffffffffffffffffffff1614156107d6576040517f08c379a00000000000000000000000000000000000000000000000000000000081526004016107cd90613373565b60405180910390fd5b8073ffffffffffffffffffffffffffffffffffffffff166107f561172f565b73ffffffffffffffffffffffffffffffffffffffff16148061082457506108238161081e61172f565b611097565b5b610863576040517f08c379a000000000000000000000000000000000000000000000000000000000815260040161085a90613405565b60405180910390fd5b61086d8383611737565b505050565b6060600c8383604051610886929190613455565b9081526020016040518091039020805461089f9061323d565b80601f01602080910402602001604051908101604052809291908181526020018280546108cb9061323d565b80156109185780601f106108ed57610100808354040283529160200191610918565b820191906000526020600020905b8154815290600101906020018083116108fb57829003601f168201915b5050505050905092915050565b61093661093061172f565b826117f0565b610975576040517f08c379a000000000000000000000000000000000000000000000000000000000815260040161096c906134e0565b60405180910390fd5b6109808383836118ce565b505050565b600b818051602081018201805184825260208301602085012081835280955050505050506000915054906101000a900473ffffffffffffffffffffffffffffffffffffffff1681565b600880546109db9061323d565b80601f0160208091040260200160405190810160405280929190818152602001828054610a079061323d565b8015610a545780601f10610a2957610100808354040283529160200191610a54565b820191906000526020600020905b815481529060010190602001808311610a3757829003601f168201915b505050505081565b610a7783838360405180602001604052806000815250610d44565b505050565b600c818051602081018201805184825260208301602085012081835280955050505050506000915090508054610ab19061323d565b80601f0160208091040260200160405190810160405280929190818152602001828054610add9061323d565b8015610b2a5780601f10610aff57610100808354040283529160200191610b2a565b820191906000526020600020905b815481529060010190602001808311610b0d57829003601f168201915b505050505081565b6000806002600084815260200190815260200160002060009054906101000a900473ffffffffffffffffffffffffffffffffffffffff169050600073ffffffffffffffffffffffffffffffffffffffff168173ffffffffffffffffffffffffffffffffffffffff161415610bdb576040517f08c379a0000000000000000000000000000000000000000000000000000000008152600401610bd290613572565b60405180910390fd5b80915050919050565b60008073ffffffffffffffffffffffffffffffffffffffff168273ffffffffffffffffffffffffffffffffffffffff161415610c55576040517f08c379a0000000000000000000000000000000000000000000000000000000008152600401610c4c90613604565b60405180910390fd5b600360008373ffffffffffffffffffffffffffffffffffffffff1673ffffffffffffffffffffffffffffffffffffffff168152602001908152602001600020549050919050565b606060018054610cab9061323d565b80601f0160208091040260200160405190810160405280929190818152602001828054610cd79061323d565b8015610d245780601f10610cf957610100808354040283529160200191610d24565b820191906000526020600020905b815481529060010190602001808311610d0757829003601f168201915b5050505050905090565b610d40610d3961172f565b8383611b35565b5050565b610d55610d4f61172f565b836117f0565b610d94576040517f08c379a0000000000000000000000000000000000000000000000000000000008152600401610d8b906134e0565b60405180910390fd5b610da084848484611ca2565b50505050565b6000600b8383604051610dba929190613455565b908152602001604051809103902060009054906101000a900473ffffffffffffffffffffffffffffffffffffffff16905092915050565b3373ffffffffffffffffffffffffffffffffffffffff16600b8585604051610e1a929190613455565b908152602001604051809103902060009054906101000a900473ffffffffffffffffffffffffffffffffffffffff1673ffffffffffffffffffffffffffffffffffffffff1614610e6957600080fd5b8181600c8686604051610e7d929190613455565b90815260200160405180910390209190610e9892919061290a565b5050505050565b6060610eaa826116c3565b610ee9576040517f08c379a0000000000000000000000000000000000000000000000000000000008152600401610ee090613696565b60405180910390fd5b6000600660008481526020019081526020016000208054610f099061323d565b80601f0160208091040260200160405190810160405280929190818152602001828054610f359061323d565b8015610f825780601f10610f5757610100808354040283529160200191610f82565b820191906000526020600020905b815481529060010190602001808311610f6557829003601f168201915b505050505090506000610f93611cfe565b9050600081511415610fa9578192505050610fec565b600082511115610fde578082604051602001610fc69291906136e7565b60405160208183030381529060405292505050610fec565b610fe784611d15565b925050505b919050565b60008061104184848080601f016020809104026020016040519081016040528093929190818152602001838380828437600081840152601f19601f82011690508083019250505050505050611dbc565b90506000811161105057600080fd5b600381141561106a576706f05b59d3b20000915050611091565b600481141561108457670429d069189e0000915050611091565b67016345785d8a00009150505b92915050565b6000600560008473ffffffffffffffffffffffffffffffffffffffff1673ffffffffffffffffffffffffffffffffffffffff16815260200190815260200160002060008373ffffffffffffffffffffffffffffffffffffffff1673ffffffffffffffffffffffffffffffffffffffff16815260200190815260200160002060009054906101000a900460ff16905092915050565b600073ffffffffffffffffffffffffffffffffffffffff16600b8383604051611155929190613455565b908152602001604051809103902060009054906101000a900473ffffffffffffffffffffffffffffffffffffffff1673ffffffffffffffffffffffffffffffffffffffff16146111a457600080fd5b60003073ffffffffffffffffffffffffffffffffffffffff1663e28f338484846040518363ffffffff1660e01b81526004016111e1929190613738565b602060405180830381865afa1580156111fe573d6000803e3d6000fd5b505050506040513d601f19601f820116820180604052508101906112229190613771565b905080341015611267576040517f08c379a000000000000000000000000000000000000000000000000000000000815260040161125e906137ea565b60405180910390fd5b60008383600860405160200161127f939291906138ea565b60405160208183030381529060405290506000600982600a6040516020016112a99392919061391b565b604051602081830303815290604052905060006112c66007611f71565b9050600061131787878080601f016020809104026020016040519081016040528093929190818152602001838380828437600081840152601f19601f82011690508083019250505050505050611dbc565b9050600061132482611f7f565b90506114186040518060600160405280603181526020016144046031913989898080601f016020809104026020016040519081016040528093929190818152602001838380828437600081840152601f19601f82011690508083019250505050505050600880546113949061323d565b80601f01602080910402602001604051908101604052809291908181526020018280546113c09061323d565b801561140d5780601f106113e25761010080835404028352916020019161140d565b820191906000526020600020905b8154815290600101906020018083116113f057829003601f168201915b5050505050866120e0565b600061144e8661142787612182565b8460405160200161143a93929190613ac8565b604051602081830303815290604052612182565b90506000816040516020016114639190613b71565b60405160208183030381529060405290506114956040518060600160405280603a8152602001614435603a913961231a565b6114d46040518060400160405280600e81526020017f46696e616c20746f6b656e555249000000000000000000000000000000000000815250826115bd565b6114f56040518060600160405280603a81526020016144af603a913961231a565b6114ff33866123b3565b61150985826123d1565b33600b8b8b60405161151c929190613455565b908152602001604051809103902060006101000a81548173ffffffffffffffffffffffffffffffffffffffff021916908373ffffffffffffffffffffffffffffffffffffffff1602179055506115726007612445565b6115b16040518060400160405280601b81526020017f2573206861732072656769737465726564206120646f6d61696e2100000000008152503361245b565b50505050505050505050565b61165582826040516024016115d3929190613b93565b6040516020818303038152906040527f4b5c4277000000000000000000000000000000000000000000000000000000007bffffffffffffffffffffffffffffffffffffffffffffffffffffffff19166020820180517bffffffffffffffffffffffffffffffffffffffffffffffffffffffff83818316178352505050506124f7565b5050565b60007f01ffc9a7000000000000000000000000000000000000000000000000000000007bffffffffffffffffffffffffffffffffffffffffffffffffffffffff1916827bffffffffffffffffffffffffffffffffffffffffffffffffffffffff1916149050919050565b60008073ffffffffffffffffffffffffffffffffffffffff166002600084815260200190815260200160002060009054906101000a900473ffffffffffffffffffffffffffffffffffffffff1673ffffffffffffffffffffffffffffffffffffffff1614159050919050565b600033905090565b816004600083815260200190815260200160002060006101000a81548173ffffffffffffffffffffffffffffffffffffffff021916908373ffffffffffffffffffffffffffffffffffffffff160217905550808273ffffffffffffffffffffffffffffffffffffffff166117aa83610b32565b73ffffffffffffffffffffffffffffffffffffffff167f8c5be1e5ebec7d5bd14f71427d1e84f3dd0314c0f7b2291e5b200ac8c7c3b92560405160405180910390a45050565b60006117fb826116c3565b61183a576040517f08c379a000000000000000000000000000000000000000000000000000000000815260040161183190613c3c565b60405180910390fd5b600061184583610b32565b90508073ffffffffffffffffffffffffffffffffffffffff168473ffffffffffffffffffffffffffffffffffffffff1614806118b457508373ffffffffffffffffffffffffffffffffffffffff1661189c846106d5565b73ffffffffffffffffffffffffffffffffffffffff16145b806118c557506118c48185611097565b5b91505092915050565b8273ffffffffffffffffffffffffffffffffffffffff166118ee82610b32565b73ffffffffffffffffffffffffffffffffffffffff1614611944576040517f08c379a000000000000000000000000000000000000000000000000000000000815260040161193b90613cce565b60405180910390fd5b600073ffffffffffffffffffffffffffffffffffffffff168273ffffffffffffffffffffffffffffffffffffffff1614156119b4576040517f08c379a00000000000000000000000000000000000000000000000000000000081526004016119ab90613d60565b60405180910390fd5b6119bf838383612520565b6119ca600082611737565b6001600360008573ffffffffffffffffffffffffffffffffffffffff1673ffffffffffffffffffffffffffffffffffffffff1681526020019081526020016000206000828254611a1a9190613daf565b925050819055506001600360008473ffffffffffffffffffffffffffffffffffffffff1673ffffffffffffffffffffffffffffffffffffffff1681526020019081526020016000206000828254611a719190613de3565b92505081905550816002600083815260200190815260200160002060006101000a81548173ffffffffffffffffffffffffffffffffffffffff021916908373ffffffffffffffffffffffffffffffffffffffff160217905550808273ffffffffffffffffffffffffffffffffffffffff168473ffffffffffffffffffffffffffffffffffffffff167fddf252ad1be2c89b69c2b068fc378daa952ba7f163c4a11628f55a4df523b3ef60405160405180910390a4611b30838383612525565b505050565b8173ffffffffffffffffffffffffffffffffffffffff168373ffffffffffffffffffffffffffffffffffffffff161415611ba4576040517f08c379a0000000000000000000000000000000000000000000000000000000008152600401611b9b90613e85565b60405180910390fd5b80600560008573ffffffffffffffffffffffffffffffffffffffff1673ffffffffffffffffffffffffffffffffffffffff16815260200190815260200160002060008473ffffffffffffffffffffffffffffffffffffffff1673ffffffffffffffffffffffffffffffffffffffff16815260200190815260200160002060006101000a81548160ff0219169083151502179055508173ffffffffffffffffffffffffffffffffffffffff168373ffffffffffffffffffffffffffffffffffffffff167f17307eab39ab6107e8899845ad3d59bd9653f200f220920489ca2b5937696c3183604051611c959190612ae7565b60405180910390a3505050565b611cad8484846118ce565b611cb98484848461252a565b611cf8576040517f08c379a0000000000000000000000000000000000000000000000000000000008152600401611cef90613f17565b60405180910390fd5b50505050565b606060405180602001604052806000815250905090565b6060611d20826116c3565b611d5f576040517f08c379a0000000000000000000000000000000000000000000000000000000008152600401611d5690613fa9565b60405180910390fd5b6000611d69611cfe565b90506000815111611d895760405180602001604052806000815250611db4565b80611d9384611f7f565b604051602001611da49291906136e7565b6040516020818303038152906040525b915050919050565b60008060008084519050600092505b80821015611f66576000858381518110611de857611de7613fc9565b5b602001015160f81c60f81b9050608060f81b817effffffffffffffffffffffffffffffffffffffffffffffffffffffffffffff19161015611e3757600183611e309190613de3565b9250611f52565b60e060f81b817effffffffffffffffffffffffffffffffffffffffffffffffffffffffffffff19161015611e7957600283611e729190613de3565b9250611f51565b60f060f81b817effffffffffffffffffffffffffffffffffffffffffffffffffffffffffffff19161015611ebb57600383611eb49190613de3565b9250611f50565b60f8801b817effffffffffffffffffffffffffffffffffffffffffffffffffffffffffffff19161015611efc57600483611ef59190613de3565b9250611f4f565b60fc60f81b817effffffffffffffffffffffffffffffffffffffffffffffffffffffffffffff19161015611f3e57600583611f379190613de3565b9250611f4e565b600683611f4b9190613de3565b92505b5b5b5b5b508280611f5e90613ff8565b935050611dcb565b829350505050919050565b600081600001549050919050565b60606000821415611fc7576040518060400160405280600181526020017f300000000000000000000000000000000000000000000000000000000000000081525090506120db565b600082905060005b60008214611ff9578080611fe290613ff8565b915050600a82611ff29190614070565b9150611fcf565b60008167ffffffffffffffff81111561201557612014612df2565b5b6040519080825280601f01601f1916602001820160405280156120475781602001600182028036833780820191505090505b5090505b600085146120d4576001826120609190613daf565b9150600a8561206f91906140a1565b603061207b9190613de3565b60f81b81838151811061209157612090613fc9565b5b60200101907effffffffffffffffffffffffffffffffffffffffffffffffffffffffffffff1916908160001a905350600a856120cd9190614070565b945061204b565b8093505050505b919050565b61217c848484846040516024016120fa94939291906140d2565b6040516020818303038152906040527f9fd009f5000000000000000000000000000000000000000000000000000000007bffffffffffffffffffffffffffffffffffffffffffffffffffffffff19166020820180517bffffffffffffffffffffffffffffffffffffffffffffffffffffffff83818316178352505050506124f7565b50505050565b606060008251905060008114156121ab5760405180602001604052806000815250915050612315565b600060036002836121bc9190613de3565b6121c69190614070565b60046121d2919061412c565b905060006020826121e39190613de3565b67ffffffffffffffff8111156121fc576121fb612df2565b5b6040519080825280601f01601f19166020018201604052801561222e5781602001600182028036833780820191505090505b509050600060405180606001604052806040815260200161446f604091399050600181016020830160005b868110156122d25760038101905062ffffff818a015116603f8160121c168401518060081b905060ff603f83600c1c1686015116810190508060081b905060ff603f8360061c1686015116810190508060081b905060ff603f831686015116810190508060e01b90508084526004840193505050612259565b5060038606600181146122ec57600281146122fc57612307565b613d3d60f01b6002830352612307565b603d60f81b60018303525b508484525050819450505050505b919050565b6123b08160405160240161232e9190612b9b565b6040516020818303038152906040527f41304fac000000000000000000000000000000000000000000000000000000007bffffffffffffffffffffffffffffffffffffffffffffffffffffffff19166020820180517bffffffffffffffffffffffffffffffffffffffffffffffffffffffff83818316178352505050506124f7565b50565b6123cd8282604051806020016040528060008152506126b2565b5050565b6123da826116c3565b612419576040517f08c379a0000000000000000000000000000000000000000000000000000000008152600401612410906141f8565b60405180910390fd5b80600660008481526020019081526020016000209080519060200190612440929190612990565b505050565b6001816000016000828254019250508190555050565b6124f38282604051602401612471929190614218565b6040516020818303038152906040527f319af333000000000000000000000000000000000000000000000000000000007bffffffffffffffffffffffffffffffffffffffffffffffffffffffff19166020820180517bffffffffffffffffffffffffffffffffffffffffffffffffffffffff83818316178352505050506124f7565b5050565b60008151905060006a636f6e736f6c652e6c6f679050602083016000808483855afa5050505050565b505050565b505050565b600061254b8473ffffffffffffffffffffffffffffffffffffffff1661270d565b156126a5578373ffffffffffffffffffffffffffffffffffffffff1663150b7a0261257461172f565b8786866040518563ffffffff1660e01b8152600401612596949392919061429d565b6020604051808303816000875af19250505080156125d257506040513d601f19601f820116820180604052508101906125cf91906142fe565b60015b612655573d8060008114612602576040519150601f19603f3d011682016040523d82523d6000602084013e612607565b606091505b5060008151141561264d576040517f08c379a000000000000000000000000000000000000000000000000000000000815260040161264490613f17565b60405180910390fd5b805181602001fd5b63150b7a0260e01b7bffffffffffffffffffffffffffffffffffffffffffffffffffffffff1916817bffffffffffffffffffffffffffffffffffffffffffffffffffffffff1916149150506126aa565b600190505b949350505050565b6126bc8383612730565b6126c9600084848461252a565b612708576040517f08c379a00000000000000000000000000000000000000000000000000000000081526004016126ff90613f17565b60405180910390fd5b505050565b6000808273ffffffffffffffffffffffffffffffffffffffff163b119050919050565b600073ffffffffffffffffffffffffffffffffffffffff168273ffffffffffffffffffffffffffffffffffffffff1614156127a0576040517f08c379a000000000000000000000000000000000000000000000000000000000815260040161279790614377565b60405180910390fd5b6127a9816116c3565b156127e9576040517f08c379a00000000000000000000000000000000000000000000000000000000081526004016127e0906143e3565b60405180910390fd5b6127f560008383612520565b6001600360008473ffffffffffffffffffffffffffffffffffffffff1673ffffffffffffffffffffffffffffffffffffffff16815260200190815260200160002060008282546128459190613de3565b92505081905550816002600083815260200190815260200160002060006101000a81548173ffffffffffffffffffffffffffffffffffffffff021916908373ffffffffffffffffffffffffffffffffffffffff160217905550808273ffffffffffffffffffffffffffffffffffffffff16600073ffffffffffffffffffffffffffffffffffffffff167fddf252ad1be2c89b69c2b068fc378daa952ba7f163c4a11628f55a4df523b3ef60405160405180910390a461290660008383612525565b5050565b8280546129169061323d565b90600052602060002090601f016020900481019282612938576000855561297f565b82601f1061295157803560ff191683800117855561297f565b8280016001018555821561297f579182015b8281111561297e578235825591602001919060010190612963565b5b50905061298c9190612a16565b5090565b82805461299c9061323d565b90600052602060002090601f0160209004810192826129be5760008555612a05565b82601f106129d757805160ff1916838001178555612a05565b82800160010185558215612a05579182015b82811115612a045782518255916020019190600101906129e9565b5b509050612a129190612a16565b5090565b5b80821115612a2f576000816000905550600101612a17565b5090565b6000604051905090565b600080fd5b600080fd5b60007fffffffff0000000000000000000000000000000000000000000000000000000082169050919050565b612a7c81612a47565b8114612a8757600080fd5b50565b600081359050612a9981612a73565b92915050565b600060208284031215612ab557612ab4612a3d565b5b6000612ac384828501612a8a565b91505092915050565b60008115159050919050565b612ae181612acc565b82525050565b6000602082019050612afc6000830184612ad8565b92915050565b600081519050919050565b600082825260208201905092915050565b60005b83811015612b3c578082015181840152602081019050612b21565b83811115612b4b576000848401525b50505050565b6000601f19601f8301169050919050565b6000612b6d82612b02565b612b778185612b0d565b9350612b87818560208601612b1e565b612b9081612b51565b840191505092915050565b60006020820190508181036000830152612bb58184612b62565b905092915050565b6000819050919050565b612bd081612bbd565b8114612bdb57600080fd5b50565b600081359050612bed81612bc7565b92915050565b600060208284031215612c0957612c08612a3d565b5b6000612c1784828501612bde565b91505092915050565b600073ffffffffffffffffffffffffffffffffffffffff82169050919050565b6000612c4b82612c20565b9050919050565b612c5b81612c40565b82525050565b6000602082019050612c766000830184612c52565b92915050565b612c8581612c40565b8114612c9057600080fd5b50565b600081359050612ca281612c7c565b92915050565b60008060408385031215612cbf57612cbe612a3d565b5b6000612ccd85828601612c93565b9250506020612cde85828601612bde565b9150509250929050565b600080fd5b600080fd5b600080fd5b60008083601f840112612d0d57612d0c612ce8565b5b8235905067ffffffffffffffff811115612d2a57612d29612ced565b5b602083019150836001820283011115612d4657612d45612cf2565b5b9250929050565b60008060208385031215612d6457612d63612a3d565b5b600083013567ffffffffffffffff811115612d8257612d81612a42565b5b612d8e85828601612cf7565b92509250509250929050565b600080600060608486031215612db357612db2612a3d565b5b6000612dc186828701612c93565b9350506020612dd286828701612c93565b9250506040612de386828701612bde565b9150509250925092565b600080fd5b7f4e487b7100000000000000000000000000000000000000000000000000000000600052604160045260246000fd5b612e2a82612b51565b810181811067ffffffffffffffff82111715612e4957612e48612df2565b5b80604052505050565b6000612e5c612a33565b9050612e688282612e21565b919050565b600067ffffffffffffffff821115612e8857612e87612df2565b5b612e9182612b51565b9050602081019050919050565b82818337600083830152505050565b6000612ec0612ebb84612e6d565b612e52565b905082815260208101848484011115612edc57612edb612ded565b5b612ee7848285612e9e565b509392505050565b600082601f830112612f0457612f03612ce8565b5b8135612f14848260208601612ead565b91505092915050565b600060208284031215612f3357612f32612a3d565b5b600082013567ffffffffffffffff811115612f5157612f50612a42565b5b612f5d84828501612eef565b91505092915050565b600060208284031215612f7c57612f7b612a3d565b5b6000612f8a84828501612c93565b91505092915050565b612f9c81612bbd565b82525050565b6000602082019050612fb76000830184612f93565b92915050565b612fc681612acc565b8114612fd157600080fd5b50565b600081359050612fe381612fbd565b92915050565b6000806040838503121561300057612fff612a3d565b5b600061300e85828601612c93565b925050602061301f85828601612fd4565b9150509250929050565b600067ffffffffffffffff82111561304457613043612df2565b5b61304d82612b51565b9050602081019050919050565b600061306d61306884613029565b612e52565b90508281526020810184848401111561308957613088612ded565b5b613094848285612e9e565b509392505050565b600082601f8301126130b1576130b0612ce8565b5b81356130c184826020860161305a565b91505092915050565b600080600080608085870312156130e4576130e3612a3d565b5b60006130f287828801612c93565b945050602061310387828801612c93565b935050604061311487828801612bde565b925050606085013567ffffffffffffffff81111561313557613134612a42565b5b6131418782880161309c565b91505092959194509250565b6000806000806040858703121561316757613166612a3d565b5b600085013567ffffffffffffffff81111561318557613184612a42565b5b61319187828801612cf7565b9450945050602085013567ffffffffffffffff8111156131b4576131b3612a42565b5b6131c087828801612cf7565b925092505092959194509250565b600080604083850312156131e5576131e4612a3d565b5b60006131f385828601612c93565b925050602061320485828601612c93565b9150509250929050565b7f4e487b7100000000000000000000000000000000000000000000000000000000600052602260045260246000fd5b6000600282049050600182168061325557607f821691505b602082108114156132695761326861320e565b5b50919050565b7f4552433732313a20617070726f76656420717565727920666f72206e6f6e657860008201527f697374656e7420746f6b656e0000000000000000000000000000000000000000602082015250565b60006132cb602c83612b0d565b91506132d68261326f565b604082019050919050565b600060208201905081810360008301526132fa816132be565b9050919050565b7f4552433732313a20617070726f76616c20746f2063757272656e74206f776e6560008201527f7200000000000000000000000000000000000000000000000000000000000000602082015250565b600061335d602183612b0d565b915061336882613301565b604082019050919050565b6000602082019050818103600083015261338c81613350565b9050919050565b7f4552433732313a20617070726f76652063616c6c6572206973206e6f74206f7760008201527f6e6572206e6f7220617070726f76656420666f7220616c6c0000000000000000602082015250565b60006133ef603883612b0d565b91506133fa82613393565b604082019050919050565b6000602082019050818103600083015261341e816133e2565b9050919050565b600081905092915050565b600061343c8385613425565b9350613449838584612e9e565b82840190509392505050565b6000613462828486613430565b91508190509392505050565b7f4552433732313a207472616e736665722063616c6c6572206973206e6f74206f60008201527f776e6572206e6f7220617070726f766564000000000000000000000000000000602082015250565b60006134ca603183612b0d565b91506134d58261346e565b604082019050919050565b600060208201905081810360008301526134f9816134bd565b9050919050565b7f4552433732313a206f776e657220717565727920666f72206e6f6e657869737460008201527f656e7420746f6b656e0000000000000000000000000000000000000000000000602082015250565b600061355c602983612b0d565b915061356782613500565b604082019050919050565b6000602082019050818103600083015261358b8161354f565b9050919050565b7f4552433732313a2062616c616e636520717565727920666f7220746865207a6560008201527f726f206164647265737300000000000000000000000000000000000000000000602082015250565b60006135ee602a83612b0d565b91506135f982613592565b604082019050919050565b6000602082019050818103600083015261361d816135e1565b9050919050565b7f45524337323155524953746f726167653a2055524920717565727920666f722060008201527f6e6f6e6578697374656e7420746f6b656e000000000000000000000000000000602082015250565b6000613680603183612b0d565b915061368b82613624565b604082019050919050565b600060208201905081810360008301526136af81613673565b9050919050565b60006136c182612b02565b6136cb8185613425565b93506136db818560208601612b1e565b80840191505092915050565b60006136f382856136b6565b91506136ff82846136b6565b91508190509392505050565b60006137178385612b0d565b9350613724838584612e9e565b61372d83612b51565b840190509392505050565b6000602082019050818103600083015261375381848661370b565b90509392505050565b60008151905061376b81612bc7565b92915050565b60006020828403121561378757613786612a3d565b5b60006137958482850161375c565b91505092915050565b7f4e6f7420656e6f756768204d4154494321000000000000000000000000000000600082015250565b60006137d4601183612b0d565b91506137df8261379e565b602082019050919050565b60006020820190508181036000830152613803816137c7565b9050919050565b7f2e00000000000000000000000000000000000000000000000000000000000000600082015250565b6000613840600183613425565b915061384b8261380a565b600182019050919050565b60008190508160005260206000209050919050565b600081546138788161323d565b6138828186613425565b9450600182166000811461389d57600181146138ae576138e1565b60ff198316865281860193506138e1565b6138b785613856565b60005b838110156138d9578154818901526001820191506020810190506138ba565b838801955050505b50505092915050565b60006138f7828587613430565b915061390282613833565b915061390e828461386b565b9150819050949350505050565b6000613927828661386b565b915061393382856136b6565b915061393f828461386b565b9150819050949350505050565b7f7b226e616d65223a202200000000000000000000000000000000000000000000600082015250565b6000613982600a83613425565b915061398d8261394c565b600a82019050919050565b7f222c20226465736372697074696f6e223a20224120646f6d61696e206f6e207460008201527f68652047616e6747616e67206e616d652053657276696365222c2022696d616760208201527f65223a2022646174613a696d6167652f7376672b786d6c3b6261736536342c00604082015250565b6000613a1a605f83613425565b9150613a2582613998565b605f82019050919050565b7f222c226c656e677468223a220000000000000000000000000000000000000000600082015250565b6000613a66600c83613425565b9150613a7182613a30565b600c82019050919050565b7f227d000000000000000000000000000000000000000000000000000000000000600082015250565b6000613ab2600283613425565b9150613abd82613a7c565b600282019050919050565b6000613ad382613975565b9150613adf82866136b6565b9150613aea82613a0d565b9150613af682856136b6565b9150613b0182613a59565b9150613b0d82846136b6565b9150613b1882613aa5565b9150819050949350505050565b7f646174613a6170706c69636174696f6e2f6a736f6e3b6261736536342c000000600082015250565b6000613b5b601d83613425565b9150613b6682613b25565b601d82019050919050565b6000613b7c82613b4e565b9150613b8882846136b6565b915081905092915050565b60006040820190508181036000830152613bad8185612b62565b90508181036020830152613bc18184612b62565b90509392505050565b7f4552433732313a206f70657261746f7220717565727920666f72206e6f6e657860008201527f697374656e7420746f6b656e0000000000000000000000000000000000000000602082015250565b6000613c26602c83612b0d565b9150613c3182613bca565b604082019050919050565b60006020820190508181036000830152613c5581613c19565b9050919050565b7f4552433732313a207472616e736665722066726f6d20696e636f72726563742060008201527f6f776e6572000000000000000000000000000000000000000000000000000000602082015250565b6000613cb8602583612b0d565b9150613cc382613c5c565b604082019050919050565b60006020820190508181036000830152613ce781613cab565b9050919050565b7f4552433732313a207472616e7366657220746f20746865207a65726f2061646460008201527f7265737300000000000000000000000000000000000000000000000000000000602082015250565b6000613d4a602483612b0d565b9150613d5582613cee565b604082019050919050565b60006020820190508181036000830152613d7981613d3d565b9050919050565b7f4e487b7100000000000000000000000000000000000000000000000000000000600052601160045260246000fd5b6000613dba82612bbd565b9150613dc583612bbd565b925082821015613dd857613dd7613d80565b5b828203905092915050565b6000613dee82612bbd565b9150613df983612bbd565b9250827fffffffffffffffffffffffffffffffffffffffffffffffffffffffffffffffff03821115613e2e57613e2d613d80565b5b828201905092915050565b7f4552433732313a20617070726f766520746f2063616c6c657200000000000000600082015250565b6000613e6f601983612b0d565b9150613e7a82613e39565b602082019050919050565b60006020820190508181036000830152613e9e81613e62565b9050919050565b7f4552433732313a207472616e7366657220746f206e6f6e20455243373231526560008201527f63656976657220696d706c656d656e7465720000000000000000000000000000602082015250565b6000613f01603283612b0d565b9150613f0c82613ea5565b604082019050919050565b60006020820190508181036000830152613f3081613ef4565b9050919050565b7f4552433732314d657461646174613a2055524920717565727920666f72206e6f60008201527f6e6578697374656e7420746f6b656e0000000000000000000000000000000000602082015250565b6000613f93602f83612b0d565b9150613f9e82613f37565b604082019050919050565b60006020820190508181036000830152613fc281613f86565b9050919050565b7f4e487b7100000000000000000000000000000000000000000000000000000000600052603260045260246000fd5b600061400382612bbd565b91507fffffffffffffffffffffffffffffffffffffffffffffffffffffffffffffffff82141561403657614035613d80565b5b600182019050919050565b7f4e487b7100000000000000000000000000000000000000000000000000000000600052601260045260246000fd5b600061407b82612bbd565b915061408683612bbd565b92508261409657614095614041565b5b828204905092915050565b60006140ac82612bbd565b91506140b783612bbd565b9250826140c7576140c6614041565b5b828206905092915050565b600060808201905081810360008301526140ec8187612b62565b905081810360208301526141008186612b62565b905081810360408301526141148185612b62565b90506141236060830184612f93565b95945050505050565b600061413782612bbd565b915061414283612bbd565b9250817fffffffffffffffffffffffffffffffffffffffffffffffffffffffffffffffff048311821515161561417b5761417a613d80565b5b828202905092915050565b7f45524337323155524953746f726167653a2055524920736574206f66206e6f6e60008201527f6578697374656e7420746f6b656e000000000000000000000000000000000000602082015250565b60006141e2602e83612b0d565b91506141ed82614186565b604082019050919050565b60006020820190508181036000830152614211816141d5565b9050919050565b600060408201905081810360008301526142328185612b62565b90506142416020830184612c52565b9392505050565b600081519050919050565b600082825260208201905092915050565b600061426f82614248565b6142798185614253565b9350614289818560208601612b1e565b61429281612b51565b840191505092915050565b60006080820190506142b26000830187612c52565b6142bf6020830186612c52565b6142cc6040830185612f93565b81810360608301526142de8184614264565b905095945050505050565b6000815190506142f881612a73565b92915050565b60006020828403121561431457614313612a3d565b5b6000614322848285016142e9565b91505092915050565b7f4552433732313a206d696e7420746f20746865207a65726f2061646472657373600082015250565b6000614361602083612b0d565b915061436c8261432b565b602082019050919050565b6000602082019050818103600083015261439081614354565b9050919050565b7f4552433732313a20746f6b656e20616c7265616479206d696e74656400000000600082015250565b60006143cd601c83612b0d565b91506143d882614397565b602082019050919050565b600060208201905081810360008301526143fc816143c0565b905091905056fe5265676973746572696e672025732e2573206f6e2074686520636f6e7472616374207769746820746f6b656e49442025640a2d2d2d2d2d2d2d2d2d2d2d2d2d2d2d2d2d2d2d2d2d2d2d2d2d2d2d2d2d2d2d2d2d2d2d2d2d2d2d2d2d2d2d2d2d2d2d2d2d2d2d2d2d2d2d2d2d4142434445464748494a4b4c4d4e4f505152535455565758595a6162636465666768696a6b6c6d6e6f707172737475767778797a303132333435363738392b2f2d2d2d2d2d2d2d2d2d2d2d2d2d2d2d2d2d2d2d2d2d2d2d2d2d2d2d2d2d2d2d2d2d2d2d2d2d2d2d2d2d2d2d2d2d2d2d2d2d2d2d2d2d2d2d2d2d0aa2646970667358221220ed03bec27303f06f2e1365cf491c7e67561f74d611bc43d1562b4a0eabc143e964736f6c634300080a00333c73766720786d6c6e733d22687474703a2f2f7777772e77332e6f72672f323030302f737667222077696474683d2232373022206865696768743d22323730222066696c6c3d226e6f6e65223e3c706174682066696c6c3d2275726c282361292220643d224d302030683237307632373048307a222f3e3c646566733e3c66696c7465722069643d22622220636f6c6f722d696e746572706f6c6174696f6e2d66696c746572733d2273524742222066696c746572556e6974733d227573657253706163654f6e55736522206865696768743d22323730222077696474683d22323730223e3c666544726f70536861646f772064783d2230222064793d22312220737464446576696174696f6e3d22322220666c6f6f642d6f7061636974793d222e323235222077696474683d223230302522206865696768743d2232303025222f3e3c2f66696c7465723e3c2f646566733e3c7061746820643d224d37322e3836332034322e39343961342e33383220342e3338322030203020302d342e33393420306c2d31302e30383120362e3033322d362e383520332e3933342d31302e30383120362e30333261342e33383220342e3338322030203020312d342e33393420306c2d382e3031332d342e37323161342e353220342e35322030203020312d312e3538392d312e36313620342e353420342e35342030203020312d2e3630382d322e313837762d392e333161342e323720342e3237203020302031202e3537322d322e32303820342e323520342e323520302030203120312e3632352d312e3539356c372e3838342d342e353961342e33383220342e33383220302030203120342e33393420306c372e38383420342e353961342e353220342e353220302030203120312e35383920312e36313620342e353420342e3534203020302031202e36303820322e31383776362e3033326c362e38352d342e303635762d362e30333261342e323720342e32372030203020302d2e3537322d322e32303820342e323520342e32352030203020302d312e3632352d312e3539354c34312e3435362032342e353961342e33383220342e3338322030203020302d342e33393420306c2d31342e38363420382e36353561342e323520342e32352030203020302d312e36323520312e35393520342e32373320342e3237332030203020302d2e35373220322e3230387631372e34343161342e323720342e3237203020302030202e35373220322e32303820342e323520342e323520302030203020312e36323520312e3539356c31342e38363420382e36353561342e33383220342e33383220302030203020342e33393420306c31302e3038312d352e39303120362e38352d342e3036352031302e3038312d352e39303161342e33383220342e33383220302030203120342e33393420306c372e38383420342e353961342e353220342e353220302030203120312e35383920312e36313620342e353420342e3534203020302031202e36303820322e31383776392e33313161342e323720342e32372030203020312d2e35373220322e32303820342e323520342e32352030203020312d312e36323520312e3539356c2d372e38383420342e37323161342e33383220342e3338322030203020312d342e33393420306c2d372e3838342d342e353961342e353220342e35322030203020312d312e3538392d312e36313620342e353320342e35332030203020312d2e3630382d322e313837762d362e3033326c2d362e383520342e30363576362e30333261342e323720342e3237203020302030202e35373220322e32303820342e323520342e323520302030203020312e36323520312e3539356c31342e38363420382e36353561342e33383220342e33383220302030203020342e33393420306c31342e3836342d382e36353561342e35343520342e35343520302030203020322e3139382d332e3830335635352e35333861342e323720342e32372030203020302d2e3537322d322e32303820342e323520342e32352030203020302d312e3632352d312e3539356c2d31342e3939332d382e3738367a222066696c6c3d2223666666222f3e3c646566733e3c6c696e6561724772616469656e742069643d2261222078313d2230222079313d2230222078323d22323730222079323d2232373022206772616469656e74556e6974733d227573657253706163654f6e557365223e3c73746f702073746f702d636f6c6f723d2223396130336666222f3e3c73746f70206f66667365743d2231222073746f702d636f6c6f723d2223643930643162222073746f702d6f7061636974793d222e3939222f3e3c2f6c696e6561724772616469656e743e3c2f646566733e3c7465787420783d2233322e352220793d223233312220666f6e742d73697a653d223234222066696c6c3d2223666666222066696c7465723d2275726c282362292220666f6e742d66616d696c793d22506c7573204a616b617274612053616e732c44656a6156752053616e732c4e6f746f20436f6c6f7220456d6f6a692c4170706c6520436f6c6f7220456d6f6a692c73616e732d73657269662220666f6e742d7765696768743d22626f6c64223e",
    "linkReferences": {},
    "deployedLinkReferences": {}
}